S01F00004D617472697A2052474220636F6E204A6F79737469636B2E73726563C3
S11300000C9434000C9451000C9451000C94510045
S11300100C9451000C9451000C9451000C94510018
S11300200C9451000C9451000C9451000C94510008
S11300300C9451000C9451000C9451000C945100F8
S11300400C9451000C9451000C9451000C945100E8
S11300500C9451000C9451000C9451000C945100D8
S11300600C9451000C94510011241FBECFEFD8E022
S1130070DEBFCDBF11E0A0E0B1E0E6E2FBE002C0EC
S113008005900D92A632B107D9F721E0A6E2B1E0BE
S113009001C01D92A63EB207E1F70E946F000C94C6
S11300A091050C94000080E480937C0086E88093A2
S11300B07A000895ECE7F0E09081907F8F70892BAF
S11300C08083EAE7F0E080818064808380917A0015
S11300D086FDFCCF80917800909179000895CF93AC
S11300E0DF93CDB7DEB7E2970FB6F894DEBF0FBE4D
S11300F0CDBF84B1816084B985B18E7F85B987E62F
S113010090E00E9479020E9453008AB18B7F8AB9E1
S11301108BB184608BB9612C712CEE24EA94F12CA0
S1130120912C00E081E00E945A005C0180E00E9472
S11301305A006C0189B111E0982F947082FD10E08F
S1130140911141C091103FC080910001982F969564
S11301509093000180FF04C088EB892780930001FD
S1130160E09000019E2D969590930001E0FE04C05E
S113017088EB89278093000170900001972D969554
S11301809093000170FE04C088EB892780930001DE
S1130190609000011F926F921F927F921F92EF92C4
S11301A081E091E09F938F93CE0101964C019F9340
S11301B08F930E94A702C4010E948B020FB6F89489
S11301C0DEBF0FBECDBFFF2011F0FA94BDC09BE58A
S11301D0A91692E0B906F0F0002309F43FC00830F4
S11301E009F441C0003109F443C0083109F445C0A1
S11301F0003209F447C0083209F449C0003309F455
S11302004BC0083309F44DC001500F2EFAE0FF2E05
S1130210F02D73C026EAA21621E0B20608F06DC0E4
S1130220073009F443C00F3009F445C0073109F41D
S113023047C00F3109F449C0073209F44BC00F32EB
S113024009F44DC0073309F44FC00F3309F451C00A
S11302500F5F0F2EFAE0FF2EF02D4FC00F2EFAE0A5
S1130260FF2EF02D4AC00F2EFAE0FF2EF02D45C0D0
S11302700F2EFAE0FF2EF02D40C00F2EFAE0FF2ED5
S1130280F02D3BC00F2EFAE0FF2EF02D36C00F2EBE
S1130290FAE0FF2EF02D31C00F2EFAE0FF2EF02DE4
S11302A02CC00F2EFAE0FF2EF02D27C00F2EFAE0FF
S11302B0FF2EF02D22C00F2EFAE0FF2EF02D1DC0D0
S11302C00F2EFAE0FF2EF02D18C00F2EFAE0FF2EAD
S11302D0F02D13C00F2EFAE0FF2EF02D0EC00F2EBE
S11302E0FAE0FF2EF02D09C00F2EFAE0FF2EF02DBC
S11302F004C00F2EFAE0FF2EF02D8BE5C81682E025
S1130300D80660F0802F90E00896803491059CF424
S1130310085F0F2EFAE0FF2EF02D16C096EAC916DC
S113032091E0D90688F4083058F008500F2EFAE00E
S1130330FF2EF02D09C00F2EFAE0FF2EF02D04C081
S11303400F2EFAE0FF2EF02D80E090E005C0FC01B6
S1130350EA5DFE4F10820196803C9105C0F30034A3
S1130360C0F5802F90E0AC01440F551F480F591F72
S1130370E0E5E79D90011124A1E8B0E80E9498020D
S1130380880F892F881F990B9195DA01AA5DBE4FBA
S11303908C93EE9D90011124A1E8B0E80E9498028C
S11303A0880F892F881F990B9195DA01A95DBE4F9B
S11303B08C93E69D90011124A1E8B0E80E94980274
S11303C0880F892F881F990B9195FA01E85DFE4FDC
S11303D08083F89440E050E079C0BA01660F771F3B
S11303E0640F751FFB01EA5DFE4F908180E01EC023
S11303F0992374F425B1216025B923E02A95F1F7F6
S113040000C025B12E7F25B923E02A95F1F70CC051
S113041025B1216025B900C000C025B12E7F25B9C2
S113042025E02A95F1F70000990F8F5F883000F3DB
S1130430FB01E95DFE4F908180E01EC0992374F4B6
S113044025B1216025B923E02A95F1F700C025B133
S11304502E7F25B923E02A95F1F70CC025B1216040
S113046025B900C000C025B12E7F25B925E02A9505
S1130470F1F70000990F8F5F883000F3FB01E85D0E
S1130480FE4F908180E01EC0992374F425B1216051
S113049025B923E02A95F1F700C025B12E7F25B9AF
S11304A023E02A95F1F70CC025B1216025B900C0DD
S11304B000C025B12E7F25B925E02A95F1F700006B
S11304C0990F8F5F883000F34F5F5F4F40345105C1
S11304D008F483CF78948FE391E00197F1F700C09B
S11304E000008FE39CE90197F1F700C00000912E12
S11304F019CE9093C5008093C40088E18093C10015
S113050086E08093C20008959091C00095FFFCCFCF
S11305108093C6000895CF93DF93EC0103C0219626
S11305200E94840288818111FACFDF91CF910895CE
S1130530A29FB001B39FC001A39F700D811D112420
S1130540911DB29F700D811D1124911D0895AEE07F
S1130550B0E0EDEAF2E00C9468050D891E8986E0AE
S11305608C831A8309838FEF9FE79E838D83AE016B
S1130570475E5F4F6F89788DCE0101960E94C90254
S1130580EF81F885E00FF11F10822E96E4E00C94C1
S11305908405ABE0B0E0EFECF2E00C945A056C019A
S11305A07B018A01FC0117821682838181FFCCC101
S11305B0CE0101963C01F6019381F70193FD8591EB
S11305C093FF81917F01882309F4BAC1853239F4FC
S11305D093FD859193FF81917F01853229F4B601C2
S11305E090E00E94C004E7CF912C212C312CFFE134
S11305F0F315D8F08B3279F038F4803279F0833205
S1130600A1F4232D20611DC08D3261F0803369F483
S1130610232D216016C0832D8260382EE32DE460E3
S11306203E2E2AC0F32DF8601DC037FC2DC020EDEE
S1130630280F2A3040F08E32B9F436FC81C1232DC4
S11306402064322E19C036FE06C08AE0989E200D22
S11306501124922E11C0EAE02E9E200D1124222E88
S1130660F32DF0623F2E08C08C3621F4832D806870
S1130670382E02C0883641F4F70193FD859193FF2B
S113068081917F018111B3CF982F9F7D9554933031
S113069028F40C5F1F4F9FE399830DC0833631F01C
S11306A0833771F0833509F059C021C0F801808186
S11306B089830E5F1F4F88248394912C530113C0A8
S11306C02801F2E04F0E511CF801A080B18036FEE3
S11306D003C0692D70E002C06FEF7FEFC5010E9477
S11306E0B5044C018201F32DFF773F2E16C028017B
S11306F022E0420E511CF801A080B18036FE03C0F6
S1130700692D70E002C06FEF7FEFC5010E94AA045B
S11307104C01F32DF0683F2E820133FC1BC0822D67
S113072090E088169906B0F4B60180E290E00E9449
S1130730C0042A94F4CFF50137FC859137FE8191EA
S11307405F01B60190E00E94C00421102A9421E0C8
S1130750821A91088114910471F7E8C0843611F06B
S1130760893641F5F80137FE07C0608171818281C5
S113077093810C5F1F4F08C060817181072E000CAC
S1130780880B990B0E5F1F4FF32DFF763F2E97FFBB
S113079009C090958095709561957F4F8F4F9F4FBD
S11307A0F0683F2E2AE030E0A3010E94FC04882E6A
S11307B0861845C0853731F4232D2F7EB22E2AE0CA
S11307C030E025C0932D997FB92E8F36C1F018F4EF
S11307D0883579F0B5C0803719F0883721F0B0C07A
S11307E0E92FE061BE2EB4FE0DC0FB2DF460BF2ED8
S11307F009C034FE0AC0292F2660B22E06C028E0A4
S113080030E005C020E130E002C020E132E0F80130
S1130810B7FE07C060817181828193810C5F1F4F95
S113082006C06081718180E090E00E5F1F4FA301DC
S11308300E94FC04882E8618FB2DFF773F2E36FE7F
S11308400DC0232D2E7FA22E891458F434FE0BC024
S113085032FC09C0832D8E7EA82E05C0B82CA32C93
S113086003C0B82C01C0B92CA4FE0FC0FE01E80DD2
S1130870F11D8081803321F49A2D997EA92E09C01F
S1130880A2FE06C0B394B39404C08A2D867809F0FE
S1130890B394A3FC11C0A0FE06C0B21488F4280CC3
S11308A0922C9B180EC0B21460F4B60180E290E062
S11308B00E94C004B394F7CFB21418F42B1802C0EA
S11308C0982C212CA4FE10C0B60180E390E00E9475
S11308D0C004A2FE17C0A1FC03C088E790E002C0D8
S11308E088E590E0B6010CC08A2D867859F0A1FE07
S11308F002C08BE201C080E2A7FC8DE2B60190E069
S11309000E94C004891438F4B60180E390E00E9488
S1130910C0049A94F7CF8A94F301E80DF11D808105
S1130920B60190E00E94C0048110F5CF222009F4A2
S113093042CEB60180E290E00E94C0042A94F6CF31
S1130940F6018681978102C08FEF9FEF2B96E2E13B
S11309500C947605FC010590615070400110D8F7A5
S1130960809590958E0F9F1F0895FC0161507040F3
S113097001900110D8F7809590958E0F9F1F0895D0
S11309800F931F93CF93DF93FB01238121FD03C0BA
S11309908FEF9FEF2CC022FF16C046815781248120
S11309A035814217530744F4A081B1819D012F5F23
S11309B03F4F318320838C93268137812F5F3F4FB4
S11309C03783268314C08B01EC01FB010084F1857D
S11309D0E02D0995892BE1F6D80116968D919C910D
S11309E01797019617969C938E931697CE01DF91D5
S11309F0CF911F910F910895FA01AA27283051F140
S1130A00203181F1E8946F936E7F6E5F7F4F8F4F3B
S1130A109F4FAF4FB1E03ED0B4E03CD0670F781F9A
S1130A20891F9A1FA11D680F791F8A1F911DA11D7F
S1130A306A0F711D811D911DA11D20D009F46894B8
S1130A403F912AE0269F11243019305D3193DEF660
S1130A50CF010895462F4770405D4193B3E00FD016
S1130A60C9F7F6CF462F4F70405D4A3318F0495D01
S1130A7031FD4052419302D0A9F7EACFB4E0A695E4
S1130A809795879577956795BA95C9F70097610506
S1130A90710508959B01AC010A2E0694579547955C
S1130AA037952795BA95C9F7620F731F841F951F51
S1130AB0A01D08952F923F924F925F926F927F9262
S1130AC08F929F92AF92BF92CF92DF92EF92FF925A
S1130AD00F931F93CF93DF93CDB7DEB7CA1BDB0B06
S1130AE00FB6F894DEBF0FBECDBF09942A883988AB
S1130AF048885F846E847D848C849B84AA84B984B2
S1130B00C884DF80EE80FD800C811B81AA81B981BD
S1130B10CE0FD11D0FB6F894DEBF0FBECDBFED01D1
S1090B200895F894FFCFD4
S1130B26A54E7565766F20636F6C6F72202D3E201F
S1130B36523D2533642C20473D2533642C20423D09
S1090B462533640D0A00D2
S9030000FC
