:020000020000FC
:02000000FFC03F
:02000400BEC27A
:02001400D8C250
:020024001CC2FC
:02003400F3C215
:0200480057C29D
:02004C002DC2C3
:1002000008E00EBF0FEF0DBF02E00093690001E0B0
:100210000DBB01E00093700007E00093B10008E718
:100220000AB90FE704B904E80BB904E000931B0016
:1002300004E00093680000E800936D0000E110E026
:10024000D5D040E050E000E00093000200930102AE
:10025000112401E000930202789400C00091020290
:100260000023E1F300E00093020201D0F7CF0F93E7
:100270000FB70F93403059F0413051F0423049F000
:10028000433041F0443039F0453031F06EC005C0A4
:1002900021C032C043C053C056C0503029F0513045
:1002A00039F0523049F00CC0ECE4F9E0D0D008C08D
:1002B000E8E6F9E0CCD004C0E4E8F9E0C8D000C03A
:1002C000E0E2F8E0C4D004E80BB901E00CBB01E0C7
:1002D0000DBB5DC0E4ECF8E0BAD000E20BB95030E1
:1002E00029F0513029F0523029F03FC003E03DC0E1
:1002F00004E03BC005E039C0E2EEF8E0A8D000E041
:100300000BB9503029F0513029F0523029F02DC06E
:1003100002E02BC002E029C003E027C0EAEFF8E0CA
:1003200096D000E40BB9503021F0513021F052301A
:1003300021F002E01AC003E018C004E016C000E09B
:100340000BB901E012C0E0E3F9E081D008E00BB99D
:10035000503029F0513029F0523029F006C002E027
:1003600004C003E002C004E000C0202E0F9300E0B0
:100370000093800005E00093810002EC009385006B
:1003800007EF0093840001E000936F000F9140306D
:1003900009F004C0F0E0E5E204E004C0F0E0E5E2CA
:1003A00008E000C00F931F931081102B10831F9142
:1003B0000F91503021F0513031F0523041F0F0E0E7
:1003C000E5E202E008C0F0E0EBE200E104C0F0E0AA
:1003D000E5E201E000C00F931F931081102B108302
:1003E0001F910F910F910FBF0F9108951093C500AA
:1003F0000093C40008E90093C10006E00093C20026
:1004000008951F932F933F93FF93EF931091000252
:1004100020910102312F33953F7F321721F4209133
:1004200001023217D1F3E0E0F1E0E10FF11D0083AA
:1004300030930002F8942091C10020622093C10003
:100440007894EF91FF913F912F911F9108950F9311
:100450000591003011F0D5DFFBCF0F9108950F9378
:100460000FB70F9343940AEF0415D0F40F9300E0F5
:100470000093700000E00093B10001E000931700CA
:100480000F910F9301E00CBB01E00DBB04E0009362
:100490001B0004E00093680000E800936D000F91DA
:1004A0000F910FBF0F9118950F930FB70F931F93D5
:1004B0002F934F93FF93EF9310910002209101022D
:1004C000121731F44091C1004F7D4093C1000BC021
:1004D000E0E0F1E0E20FF11D00810093C6002395FA
:1004E0002F7F20930102EF91FF914F912F911F9148
:1004F0000F910FBF0F9118950F930FB70F930091A6
:10050000C6004030D1F5013369F0023381F0033386
:1005100099F00134B1F0E0E0F8E099DF01E00093F8
:1005200002022BC050E001E00093020226C051E01D
:1005300001E00093020221C052E001E000930202B8
:100540001CC00F9300E00DBB01E00CBB00E000936A
:10055000680000E000936D0004E000931B000F9121
:100560000F930091C1000F7700620093C1000F91BB
:1005700041E001E00093020200C00F910FBF0F9114
:1005800018950F930FB70F930F9300E00DBB01E089
:100590000CBB00E00093680000E000936D0004E0F5
:1005A00000931B000F910F930091C1000F77006221
:1005B0000093C1000F9141E001E0009302020F910E
:1005C0000FBF0F9118950F930FB70F9309B107FD48
:1005D00001C020C001E00093170001E0009370000B
:1005E00007E00093B1000F9300E00DBB01E00CBBEE
:1005F00000E00093680000E000936D0004E00093C9
:100600001B000F915395533008F401C0552701E0AA
:10061000009302020F910FBF0F9118950F930FB720
:100620000F932A94211491F00F9300E0009380001F
:1006300005E00093810002EC0093850007EF009332
:10064000840001E000936F000F9124C00F9300E03D
:100650000093800000E00093810000E0009385009B
:1006600000E00093840000E000936F0001E006BB0F
:100670000F91453029F0439501E0009302020AC032
:10068000442701E0009302020F9308E90093C100A0
:0C0690000F9100C00F910FBF0F91189543
:100800004572726F723A20636F6D616E646F206E15
:100810006F20656E636F6E747261646F200A0A00E8
:1008200045737461646F2061637475616C3A205321
:1008300074616E6462790A0A456C696A6120756E3A
:1008400061206F7063696F6E3A0A5B315D202D3EE7
:1008500020436F6E666967757261722063617267AB
:1008600061206C6967657261200A5B325D202D3EF4
:1008700020436F6E6669677572617220636172678B
:1008800061206D656469616E610A5B335D202D3E98
:1008900020436F6E6669677572617220636172676B
:1008A0006120706573616461200A5B415D202D3EAB
:1008B00020496E69636961722070726F6365736F3E
:1008C000200A0A0045737461646F20616374756166
:1008D0006C3A20416C696D656E74616369F36E0AF0
:1008E0000A0045737461646F2061637475616C3ACA
:1008F000204573706572610A0A0045737461646F04
:100900002061637475616C3A2050756E7A6F6E6108
:100910006E646F0A0A0045737461646F20616374CA
:1009200075616C3A2045737065726120320A0A0065
:1009300045737461646F2061637475616C3A20451E
:1009400078747261636369F36E0A0A0043617267C7
:100950006120636F6E66696775726164613A204CED
:10096000697669616E610A00436172676120636F35
:100970006E66696775726164613A204D656469618C
:100980006E610A00436172676120636F6E6669671A
:1009900075726164613A20506573616461200A0078
:00000001FF
