:100000000C9434000C9451000C9451000C94510049
:100010000C9451000C9451000C9451000C9451001C
:100020000C9451000C9451000C9451000C9451000C
:100030000C9451000C9451000C94CF030C9451007B
:100040000C9451000C9451000C9451000C945100EC
:100050000C9451000C9451000C9451000C945100DC
:100060000C9451000C94510011241FBECFEFD8E026
:10007000DEBFCDBF11E0A0E0B1E0E2E0FBE002C0F6
:1000800005900D92A035B107D9F722E0A0E5B1E0C7
:1000900001C01D92AE33B207E1F70E94F4030C9445
:1000A0007F050C94000020E030E006C0FC01E20F68
:1000B000F31F10822F5F3F4F203C3105B8F30895A6
:1000C0000F936034B0F4E62FF0E0BF01660F771FA6
:1000D0006E0F7F1FFC01E60FF71F2083FB01319697
:1000E000E80FF91F40836E5F7F4FFC01E60FF71F9B
:1000F00000830F910895EF920F93683080F4483099
:1001000070F4302F522FFC01942F990F990F990FF3
:10011000690F0E2D232F452FCF010E9460000F91F4
:10012000EF9008956F927F928F929F92AF92BF92BD
:10013000CF92DF92EF92FF920F931F93CF93DF93B3
:100140005C01662E742E822E902EDE2C0E945300AF
:1001500010E031C0812F90E0FC01E85EFE4FF0809E
:10016000FC01E05FFE4FD081C0E022C027E030E01C
:100170002C1B310981E090E002C0880F991F2A955D
:10018000E2F72D2F282349F0EC2C0D2D292D412F9E
:100190006C2FC5010E947B000AC08F2141F0E82C22
:1001A000072D262D412F6C2FC5010E947B00CF5FAC
:1001B000C830E0F21F5F183068F2DF91CF911F91D5
:1001C0000F91FF90EF90DF90CF90BF90AF909F90F6
:1001D0008F907F906F900895109274010E94530049
:1001E00010927001109271011092720110927301BD
:1001F00010926F0110926B0110926C0110926D01C0
:1002000010926E0110925A011092590110925801E9
:1002100010925401109255011092560110925701FC
:1002200088EB9BE0A0E0B0E08093500190935101F7
:10023000A0935201B09353010895809374018111EA
:1002400003C0CB010E94530080917401813051F4AE
:1002500010926F0110927001109271011092720150
:1002600010927301823051F510926B0110926C0163
:1002700010926D0110926E0110925A011092590164
:10028000109258011092540110925501109256018B
:10029000109257010E940C0560E47FE10E949804CF
:1002A0008053984F092E000CAA0BBB0B8093500172
:1002B00090935101A0935201B093530108954F922E
:1002C0005F926F927F92AF92BF92CF92DF92EF9246
:1002D000FF920F931F93CF93DF93CDB7DEB72C9789
:1002E0000FB6F894DEBF0FBECDBF2B013C015A0103
:1002F00010917401111105C0CA010E94530011E050
:10030000B4C1113009F05EC080917001909171010B
:10031000A0917201B0917301A3019201281B390BC6
:100320004A0B5B0B283731054105510508F498C18C
:10033000409270015092710160927201709273014B
:1003400086E0E4E0F1E0DE01179601900D928A95D7
:10035000E1F786E0EAE0F1E0DE01119601900D920E
:100360008A95E1F720916F018BEA289F812D112456
:1003700086958695982F990F890F982F990F822F20
:10038000891B90E0E1E0F0E0EC0FFD1FE80FF91FA2
:100390000081C02EC694C694C694E02EE694E694DE
:1003A000E7E0F0E0EC0FFD1FE80FF91F20E040E070
:1003B0006081C5010E94920080916F018F5F8093E0
:1003C0006F0153C1123009F04DC180915A01882349
:1003D00079F134C0143068F4E12EF12C0E940C0540
:1003E00063E070E00E949804F701ED59FE4F8083AE
:1003F0000DC0E12EF12C0E940C0565E070E00E941A
:100400009804F701ED59FE4F8D5F8083E12EF12CAA
:100410000E940C0587709078992324F40197886FC7
:100420009F6F0196F701E55AFE4F80831F5F01C061
:1004300010E0183078F281E080935A0180915901E0
:1004400081112AC08091540190915501A0915601CB
:10045000B0915701B301A201481B590B6A0B7B0BEA
:100460008091500190915101A0915201B09153019E
:10047000481759076A077B0708F446C081E0809354
:1004800059011092580140925401509255016092C6
:1004900056017092570138C08091540190915501D6
:1004A000A0915601B0915701A3019201281B390B6D
:1004B0004A0B5B0B283731054105510528F1409265
:1004C00054015092550160925601709257018091EB
:1004D00058018F5F809358018830B0F01092590115
:1004E0000E940C0560E47FE10E9498048053984FBD
:1004F000092E000CAA0BBB0B809350019093510165
:10050000A0935201B093530180916B0190916C01C3
:10051000A0916D01B0916E01A3019201281B390BCE
:100520004A0B5B0B243631054105510508F49CC08C
:1005300040926B0150926C0160926D0170926E015D
:10054000C5010E945300F12C21C08F2D90E0FC01C9
:10055000ED59FE4F4081410FFC01E55AFE4F60818D
:10056000610F483068F466235CF068304CF40F2E5D
:10057000F4EBEF2EF02D00E020E0C5010E947B009F
:100580001F5F01C010E0133000F3F39437E03F1514
:10059000C8F780915901882391F0F0905801FF0C21
:1005A000FF0C8F2D880F880F8F0D0F2EF6EEFF2E6C
:1005B000F02DF80E0F2EF4E17F2EF02D08C00F2E37
:1005C000F0E57F2EF02D0F2EF0E5FF2EF02DD12C33
:1005D0000EC0E72C0F2D2F2D4D2D612FC5010E9430
:1005E0007B001F5F01C010E0183098F3D39442E005
:1005F0004D15C8F7F12C2FC00F2D10E0F801ED5963
:10060000FE4F80818F5F8083F801E55AFE4F908115
:100610009F5F9083883010F49830E4F00E940C05BE
:1006200087709078992324F40197886F9F6F0196C3
:10063000F801ED59FE4F80830E940C058770907879
:10064000992324F40197886F9F6F0196F801E55A6A
:10065000FE4F8083F39457E05F1570F611E005C0FC
:1006600010E003C010E001C010E0812F2C960FB6FF
:10067000F894DEBF0FBECDBFDF91CF911F910F91D8
:10068000FF90EF90DF90CF90BF90AF907F906F90F2
:100690005F904F90089582E084BD93E095BD99EFFF
:1006A00097BD80936E000895FC019091C00099233E
:1006B0002CF48091C600808381E0089580E0089545
:1006C0008D3011F08A3041F410927501E6E7F1E0C7
:1006D000128211821082089590ED980F933048F5A0
:1006E000813351F46EE771E081E00E941D0180E2E8
:1006F00091E00E94380415C0823351F46EE771E036
:1007000082E00E941D0189E291E00E94380409C044
:100710006EE771E080E00E941D0182E391E00E949B
:10072000380410927501E6E7F1E01282118210821E
:100730000895E0917501E33070F491E09E0F90937D
:100740007501F0E0EA58FE4F8083E92FF0E0EA58A7
:10075000FE4F108207C0E6E7F1E09181908392811D
:1007600091838283809176018F34C1F480917701E7
:100770008634A1F480917801863481F46EE771E0CB
:1007800080E00E941D0182E391E00E9438041092F3
:100790007501E6E7F1E012821182108208951F923E
:1007A0000F920FB60F9211248F939F93AF93BF9325
:1007B00080917A0190917B01A0917C01B0917D01A3
:1007C0000196A11DB11D80937A0190937B01A093A6
:1007D0007C01B0937D01BF91AF919F918F910F905C
:1007E0000FBE0F901F901895CF93DF931F92CDB738
:1007F000DEB787E690E00E9426048DE391E00E9438
:1008000038040E944B038EE791E00E94EC000E94A6
:100810006F047894CE0101960E945403882319F046
:1008200089810E94600360917A0170917B018091BF
:100830007C0190917D014EE751E00E945F01882389
:1008400049F38EE791E00E947604E4CF9093C500CF
:100850008093C40088E18093C10086E08093C20049
:1008600008959091C00095FFFCCF8093C600089535
:10087000CF93DF93EC0103C021960E94310488815D
:100880008111FACFDF91CF91089597E025C0282FED
:1008900030E0092E02C0359527950A94E2F720FF33
:1008A0000EC025B1216025B924E02A95F1F725B1C4
:1008B0002E7F25B923E02A95F1F700000CC025B161
:1008C000216025B900C000C025B12E7F25B925E0E3
:1008D0002A95F1F7000091509923CCF6089584B140
:1008E000816084B985B18E7F85B90895FF920F9399
:1008F0001F93CF93DF938C01FFB6F894C0E0D0E054
:1009000007C0F801EC0FFD1F80810E94450421966D
:10091000C03CD105B0F38FE391E00197F1F700C03F
:100920000000FFBEDF91CF911F910F91FF900895BE
:1009300097FB072E16F4009407D077FD09D00E948C
:10094000AC0407FC05D03EF4909581959F4F089527
:10095000709561957F4F0895AA1BBB1B51E107C09D
:10096000AA1FBB1FA617B70710F0A61BB70B881F3F
:10097000991F5A95A9F780959095BC01CD010895CE
:100980008F929F92AF92BF92CF92DF92EF92FF929F
:10099000CF93DF93EC01688179818A819B81611516
:1009A00071058105910521F464E279ED8BE597E00D
:1009B0002DE133EF41E050E00E941C0549015A014E
:1009C0009B01AC01A7EAB1E40E943B056B017C01ED
:1009D000ACEEB4EFA50194010E944905DC01CB0106
:1009E0008C0D9D1DAE1DBF1DB7FF03C00197A10952
:1009F000B04888839983AA83BB839F77DF91CF9187
:100A0000FF90EF90DF90CF90BF90AF909F908F902E
:100A100008950E94C004089580E091E00E94C004FF
:100A20000895A0E0B0E08093000190930101A093AD
:100A30000201B09303010895052E97FB1EF4009464
:100A40000E94330557FD07D00E944E0507FC03D0D6
:100A50004EF40C94330550954095309521953F4FB9
:100A60004F4F5F4F089590958095709561957F4F9A
:100A70008F4F9F4F08950E947005A59F900DB49FC2
:100A8000900DA49F800D911D11240895B7FF0C9423
:100A90003B050E943B05821B930B0895A1E21A2E91
:100AA000AA1BBB1BFD010DC0AA1FBB1FEE1FFF1F12
:100AB000A217B307E407F50720F0A21BB30BE40B62
:100AC000F50B661F771F881F991F1A9469F76095A9
:100AD0007095809590959B01AC01BD01CF01089563
:100AE000A29FB001B39FC001A39F700D811D11246F
:100AF000911DB29F700D811D1124911D0895F894D0
:020B0000FFCF25
:100B020001000000508CC8FFC88C2864A0DCA064DF
:100B12000000667E7E3C180000669981814224189E
:100B22004D4F444F20310D0A004D4F444F20320D9E
:100B32000A004D4F444F204F46460D0A0053697339
:100B420074656D6120696E69636961646F0D0A0085
:00000001FF
