S0180000436F6E74726F6C206465204D6F746F722E7372656311
S11300000C9434000C9449000C9449000C9449005D
S11300100C9449000C9449000C9449000C94490038
S11300200C9449000C9449000C9449000C94490028
S11300300C9449000C9449000C9449000C94490018
S11300400C9449000C9449000C9449000C94490008
S11300500C9449000C9449000C9449000C944900F8
S11300600C9449000C94490011241FBECFEFD8E032
S1130070DEBFCDBF11E0A0E0B1E0E8EAF2E002C0EB
S113008005900D92A631B107D9F70E94D0000C94C7
S113009052010C94000082E08093C0001092C500CD
S11300A080E18093C40088E08093C10086E080935F
S11300B0C20008959091C00095FFFCCF8093C600C4
S11300C00895CF93DF93EC0103C021960E945A0058
S11300D088818111FACFDF91CF91089580E48093D4
S11300E07C0086E880937A000895ECE7F0E0908144
S11300F0907F8F70892B8083EAE7F0E080818064B1
S1130100808380917A0086FDFCCF80917800909165
S113011079000895CF92DF92EF92FF921F93CF93CD
S1130120DF93182FD62FC0E0C12CD12C760108C044
S1130130812F0E947500C80ED91EE11CF11CCF5FEF
S1130140CD17B0F32D2F30E040E050E0C701B601E9
S11301500E94FB00C901DF91CF911F91FF90EF90A6
S1130160DF90CF900895CF93DF93CDB7DEB72C9770
S11301700FB6F894DEBF0FBECDBF4AE0BE016F5F7D
S11301807F4F0E941D01CE0101960E9461002C96B2
S11301900FB6F894DEBF0FBECDBFDF91CF910895A7
S11301A00E944B000E946E0080E091E00E9461007A
S11301B064E080E00E948A008C0164E081E00E9497
S11301C08A00EC01C8010E94B3008CE20E945A002C
S11301D0CE010E94B3008DE00E945A008AE00E9482
S11301E05A002FEF89EF90E0215080409040E1F7D2
S11301F000C00000DDCFA1E21A2EAA1BBB1BFD012B
S11302000DC0AA1FBB1FEE1FFF1FA217B307E407F1
S1130210F50720F0A21BB30BE40BF50B661F771F49
S1130220881F991F1A9469F7609570958095909529
S11302309B01AC01BD01CF010895BB274A3031F4C5
S1130240992322F4BDE2909581959F4F0C94290146
S1130250BB27FB015527AA27880F991FAA1FA4179C
S113026010F0A41B83955051B9F7A05DAA3308F090
S1130270A95DA193009779F7B111B1931192CB01C4
S11302800C944201DC01FC01672F71917723E1F7A3
S1130290329704C07C916D9370836291AE17BF074F
S10B02A0C8F30895F894FFCFA0
S11302A85033432C726566284130292C61637428C5
S10902B84131290D0A008A
S9030000FC
