S0180000436F6E74726F6C206465204D6F746F722E7372656311
S11300000C9434000C9449000C9449000C9449005D
S11300100C9449000C9449000C9449000C94490038
S11300200C9449000C9449000C9449000C94490028
S11300300C9449000C9449000C9449000C94490018
S11300400C9449000C9449000C9449000C94490008
S11300500C9449000C9449000C9449000C944900F8
S11300600C9449000C94490011241FBECFEFD8E032
S1130070DEBFCDBF11E0A0E0B1E0E2E8F3E002C0F2
S113008005900D92A432B107D9F70E94DA000C94BE
S1130090BF010C9400009093C5008093C40088E0D5
S11300A08093C10086E08093C20008959091C000BF
S11300B095FFFCCF8093C6000895CF93DF93EC01A6
S11300C003C021960E94560088818111FACFDF91E6
S11300D0CF91089580E480937C0086E880937A0031
S11300E00895ECE7F0E09081907F8F70892B8083F6
S11300F0EAE7F0E080818064808380917A0086FD65
S1130100FCCF80917800909179000895CF92DF928E
S1130110EF92FF921F93CF93DF93182FD62FC0E057
S1130120C12CD12C760108C0812F0E947100C80E09
S1130130D91EE11CF11CCF5FCD17B0F32D2F30E099
S113014040E050E0C701B6010E946801C901DF9197
S1130150CF911F91FF90EF90DF90CF90089584B1DD
S1130160826084B981E88093800089E08093810073
S113017010928900109288000895CF93DF93CDB731
S1130180DEB72C970FB6F894DEBF0FBECDBF4AE0A2
S1130190BE016F5F7F4F0E948A01CE0101960E94CB
S11301A05D002C960FB6F894DEBF0FBECDBFDF9175
S11301B0CF9108958AB180638AB98BB18F7E8BB950
S11301C08BB18F7D8BB90E946A000E94AF0088E0DA
S11301D090E00E944B008DE091E00E945D0064E09D
S11301E080E00E9486008C0164E081E00E94860029
S11301F0EC01C8018C1B9D0B9C0122F422273327A0
S1130200281B390B2B30310590F410928900109281
S113021088008BB18F7E8BB98BB18F7D8BB90F2EFC
S1130220F8E0EF2EF1E0FF2EF02DD12C2EC0369504
S113023027953695279528583F4F2F3F310519F0BC
S113024010F02FEF30E0D22E181619066CF48BB193
S113025080618BB98BB18F7D8BB90F2EF0E0EF2EBF
S1130260F1E0FF2EF02D0CC08BB18F7E8BB98BB1DA
S113027080628BB90F2EF4E0EF2EF1E0FF2EF02D0B
S113028033273093890020938800C8010E94BD0061
S11302908CE20E945600CE010E94BD008CE20E94B6
S11302A056008D2D90E00E94BD008CE20E94560005
S11302B0C7010E945D008DE00E9456008AE00E9402
S11302C056008FE19EE40197F1F700C0000087CF4C
S11302D0A1E21A2EAA1BBB1BFD010DC0AA1FBB1F46
S11302E0EE1FFF1FA217B307E407F50720F0A21BB8
S11302F0B30BE40BF50B661F771F881F991F1A9425
S113030069F760957095809590959B01AC01BD014E
S1130310CF010895BB274A3031F4992322F4BDE27A
S1130320909581959F4F0C949601BB27FB0155270F
S1130330AA27880F991FAA1FA41710F0A41B83953E
S11303405051B9F7A05DAA3308F0A95DA1930097B5
S113035079F7B111B1931192CB010C94AF01DC0187
S1130360FC01672F71917723E1F7329704C07C91E8
S11303706D9370836291AE17BF07C8F30895F89424
S1050380FFCFA9
S1130382465744005245560053544F50005033438D
S11303922C7265662C6163742C70776D2C6469729F
S10703A20D0A00003C
S9030000FC
