:020000020000FC
:0200000047C2F5
:0200240066C2B2
:0200400050C2AC
:080400002B2B2B2B2B2B2B2B9C
:08044000252525252525282886
:08042000FEFDFBF7EFDFBF7FDB
:08046000010204081020010252
:100480001824242466999967182424246699996667
:10049000F89408E00EBF0FEF0DBF789405E00093CD
:1004A000810001E000936F000EE00093840004EDF2
:1004B0000093850007E00093B10001E00093700015
:1004C00000E00093B2000FEF0AB90FE304B903E0B4
:1004D00007B900E8B02E04E0C02E0C946F024BD098
:1004E000FECFB3940EE00093840004ED00938500EA
:1004F000189500E00093B20018950F930FEF0BB919
:1005000000E005B900E008B90F9108950F931F931B
:100510002F933F934F935F93AF93BF93EF93FF93CB
:10052000B4E0A0E0F4E0E0E24395539516D04A959C
:10053000E9F71883B4E0A0E4F4E0E0E60ED05A95C1
:10054000E9F71883FF91EF91BF91AF915F914F91C0
:100550003F912F911F910F9108951F2E2E2EEA2F5C
:10056000FB2F0591AE2FBF2FF12DE22D20E0C02FE4
:10057000D22F15910895EB2DFC2D10E0659170E8B8
:1005800020E0BBDF872F8623803029F476952395E2
:100590002830B9F708C0412F522FB8DF08D0769520
:1005A0002395283071F71395183041F70895122ECE
:1005B000232E23E033E13A95F1F72A95E1F7212D37
:0405C000322D08953B
:00000001FF
