S0120000504F5745522D444F574E2E7372656320
S11300000C9434000C9446000C9446000C94460066
S11300100C9446000C9446000C9479000C94460011
S11300200C9446000C9446000C9446000C94460034
S11300300C9446000C9446000C9446000C94460024
S11300400C9446000C9446000C9446000C94460014
S11300500C9446000C9446000C9446000C94460004
S11300600C9446000C94460011241FBECFEFD8E038
S1130070DEBFCDBF21E0A0E0B1E001C01D92A13000
S1130080B207E1F70E948E000C94A1000C940000CA
S1130090F89484B7877F84BFE0E6F0E080818861CC
S11300A0808386E4808378940895F894E0E6F0E011
S11300B0808188618083108278940895CF93C82FBB
S11300C0109200010E94480083B7817F846083BF3F
S11300D008C083B7816083BF7894889583B78E7F87
S11300E083BF809100018C17A0F30E945500CF912B
S11300F008951F920F920FB60F9211248F9380913F
S113010000018F3F29F0809100018F5F80930001EF
S11301108F910F900FBE0F901F9018958AB18C6726
S11301208AB98BB18C678BB92FEF8BE792E9215099
S113013080409040E1F700C0000081E00E945E0032
S1090140F3CFF894FFCF99
S9030000FC
