:100000000C9442000C944C000C944C000C944C004A
:100010000C944C000C944C000C944C000C944C0030
:100020000C944C000C944C000C944C000C944C0020
:100030000C944C000C944C000C944C000C944C0010
:100040000C944C000C944C000C944C000C944C0000
:100050000C944C000C944C000C944C000C944C00F0
:100060000C944C000C944C00CF00FC00EA00D8002B
:100070000E010501F30022012601290129011E01BB
:10008000E100170111241FBECFEFD8E0DEBFCDBFC6
:100090000E942A010C944C010C9400001092C5009F
:1000A00087E68093C40088E18093C10086E0809356
:1000B000C20008958091C0008823E4F78091C600B3
:1000C000089584B1866084B9A0E8B0E081E08C93A3
:1000D000E1E8F0E088E080838C91806A8C938081F5
:1000E00083608083109289001092880010928B00A8
:1000F00010928A00089590E0909389008093880080
:10010000089590E090938B0080938A00089584B1C5
:10011000886084B9E0EBF0E083E0808380818068D0
:10012000808387E08093B10084E08093B3000895DA
:10013000853B08F084EB9CE3899F90011124A3E8A0
:10014000BDE20E943D0196958795929582958F70AC
:1001500089279F70892704968093B30008958BB1F7
:10016000806A8BB98BB18F7A8BB908958BB180651A
:100170008BB98BB18F758BB908958AB1806F8AB9AD
:100180000E94AF00089590E0FC01E654F109EE30C2
:10019000F10508F05EC0EC5CFF4F0C9437010E9443
:1001A000AF008FEF0E947B008FEF0E9481000895C7
:1001B0000E94AF008FEF0E947B008FE70E948100BA
:1001C00008950E94AF008FEF0E947B0080E00E94A4
:1001D000810008950E94AF008FEF0E9481008FE799
:1001E0000E947B0008950E94AF008FEF0E94810063
:1001F00080E00E947B0008950E94B6008FEF0E946D
:100200007B008FEF0E94810008950E94B6008FEF5F
:100210000E947B008FE70E94810008950E94B60033
:100220008FEF0E9481008FE70E947B00089580E09D
:100230000E947B0080E00E948100089582E30E947A
:10024000980008958EE10E949800089586E40E9427
:10025000980008950E944E000E9461000E94BD0017
:100260000E9487000E945A000E94C300FBCFEE0F3D
:10027000FF1F0590F491E02D0994A29FB001B39F58
:10028000C001A39F700D811D1124911DB29F700D9F
:0C029000811D1124911D0895F894FFCFEA
:00000001FF
