:100000000C9442000C944C000C944C000C944C004A
:100010000C944C000C944C000C944C000C944C0030
:100020000C944C000C944C000C944C000C944C0020
:100030000C944C000C944C000C944C000C944C0010
:100040000C944C000C944C000C944C000C944C0000
:100050000C944C000C944C000C944C000C944C00F0
:100060000C944C000C944C00F60023011101FF008D
:1000700035012C011A0149014D0150015001450182
:1000800008013E0111241FBECFEFD8E0DEBFCDBF77
:100090000E9451010C947D010C9400001092C50047
:1000A00087E68093C40088E18093C10086E0809356
:1000B000C20008958091C0008823E4F78091C600B3
:1000C00008958091C0008078089584B1866084B9D5
:1000D000A0E8B0E081E08C93E1E8F0E088E0808384
:1000E0008C91806A8C9380818360808310928900D8
:1000F0001092880010928B0010928A00089590E070
:100100009093890080938800089590E090938B00ED
:1001100080938A00089584B1886084B9E0EBF0E0B0
:1001200083E0808380818068808387E08093B10052
:1001300084E08093B3000895853B08F084EB9CE352
:10014000899F90011124A3E8BDE20E946E0196955B
:100150008795929582958F7089279F70892704963D
:100160008093B30008958BB1806A8BB98BB18F7A7D
:100170008BB908958BB180658BB98BB18F758BB9B5
:1001800008958AB1806F8AB90E94B300089584B13E
:10019000816084B985B18E7F85B9089585B181600C
:1001A00085B9089585B18E7F85B9089587B18C7F13
:1001B00087B988B1836088B9089586B1982F927005
:1001C00080FD02C0992319F00E94CE0008950E947C
:1001D000D200089590E0FC01E654F109EE30F105FB
:1001E00008F05EC0EC5CFF4F0C9468010E94B30005
:1001F0008FEF0E947F008FEF0E94850008950E947C
:10020000B3008FEF0E947F008FE70E948500089562
:100210000E94B3008FEF0E947F0080E00E94850063
:1002200008950E94B3008FE70E947F008FEF0E9425
:10023000850008950E94B30080E00E947F008FEF48
:100240000E94850008950E94BA008FEF0E947F00EF
:100250008FEF0E94850008950E94BA008FEF0E94E0
:100260007F008FE70E94850008950E94BA008FE703
:100270000E947F008FEF0E948500089580E00E9419
:100280007F0080E00E948500089582E30E949C0028
:1002900008958EE10E949C00089586E40E949C00CF
:1002A00008950E944E000E9465000E94C1000E94B5
:1002B0008B000E94C7000E94D6000E946100882324
:1002C00021F00E945A000E94EA000E94DD00F5CF52
:1002D000EE0FFF1F0590F491E02D0994A29FB0014D
:1002E000B39FC001A39F700D811D1124911DB29F6A
:0E02F000700D811D1124911D0895F894FFCF0B
:00000001FF
