:100000000C944C000C9469000C9469000C946900E9
:100010000C9469000C9469000C9469000C946900BC
:100020000C9469000C9469000C9469000C946900AC
:100030000C9469000C9469000C9469000C9469009C
:100040000C9469000C9469000C94DF160C94690000
:100050000C9469000C9469000C9469000C9469007C
:100060000C9469000C946900231526152A152F1588
:10007000341538153D15421547154B1550155515B6
:100080006D157015741579157E15821587158C15EB
:10009000911595159A159F1511241FBECFEFD8E025
:1000A000DEBFCDBF12E0A0E0B1E0E4E8FEE202C0B6
:1000B00005900D92A234B107D9F722E0A2E4B2E094
:1000C00001C01D92A438B207E1F70E9427140C94D6
:1000D00040170C940000CF93409100015091010112
:1000E0005695479561E084E00E94F8134091000125
:1000F00050910101569547955695479560E08BE0E4
:100100000E94F813809100019091010196958795C6
:10011000969587950E94EA13409100015091010144
:10012000569547955695479560E08BE00E94F813E9
:10013000409100015091010156954795569547957C
:1001400061E080E00E94F8134091000150910101AC
:10015000569547955695479560E08BE00E94F813B9
:10016000409100015091010156954795569547954C
:1001700060E089E00E94F813409100015091010174
:10018000569547955695479560E08BE00E94F81389
:10019000809100019091010196958795969587959C
:1001A0000E94EA1380910001909101019695879534
:1001B0000E94EA1340910001509101015695479524
:1001C0005695479560E08BE00E94F813409100013E
:1001D00050910101569547955695479561E080E00D
:1001E0000E94F813409100015091010156954795E6
:1001F0005695479560E08BE00E94F813409100010E
:1002000050910101569547955695479560E089E0D4
:100210000E94F813409100015091010156954795B5
:100220005695479560E08BE00E94F813809100019D
:100230009091010196958795969587950E94EA136E
:100240008091000190910101969587950E94EA1393
:10025000C0E031C040910001509101015695479591
:100260005695479560E08BE00E94F813409100019D
:1002700050910101569547955695479561E080E06C
:100280000E94F81340910001509101015695479545
:100290005695479560E08BE00E94F813409100016D
:1002A00050910101569547955695479560E089E034
:1002B0000E94F813CF5FC23068F240910001509164
:1002C0000101569547955695479560E08BE00E9451
:1002D000F81380910001909101019695879596956C
:1002E00087950E94EA1340910001509101015695B3
:1002F000479560E08BE00E94F81340910001509117
:1003000001015695479561E084E00E94F813409101
:10031000000150910101569547955695479560E02B
:100320008BE00E94F8138091000190910101969555
:100330008795969587950E94EA1340910001509108
:100340000101569547955695479560E08BE00E94D0
:10035000F813C0E031C04091000150910101569561
:1003600047955695479561E080E00E94F8134091CB
:10037000000150910101569547955695479560E0CB
:100380008BE00E94F81340910001509101015695B5
:1003900047955695479560E089E00E94F813409193
:1003A000000150910101569547955695479560E09B
:1003B0008BE00E94F813CF5FC23068F28091000199
:1003C0009091010196958795969587950E94EA13DD
:1003D00040910001509101015695479560E08BE0F6
:1003E0000E94F813409100015091010156954795E4
:1003F00061E083E00E94F8134091000150910101F7
:10040000569547955695479560E08BE00E94F81306
:100410008091000190910101969587959695879519
:100420000E94EA13409100015091010156954795B1
:100430005695479560E08BE00E94F813C0E031C00C
:100440004091000150910101569547955695479569
:1004500061E080E00E94F813409100015091010199
:10046000569547955695479560E08BE00E94F813A6
:100470004091000150910101569547955695479539
:1004800060E089E00E94F813409100015091010161
:10049000569547955695479560E08BE00E94F81376
:1004A000CF5FC23068F28091000190910101969572
:1004B0008795969587950E94EA1340910001509187
:1004C00001015695479560E08BE00E94F81340913A
:1004D0000001509101015695479561E083E00E942B
:1004E000F81340910001509101015695479556959A
:1004F000479560E08BE00E94F81380910001909195
:10050000010196958795969587950E94EA134091EB
:10051000000150910101569547955695479560E029
:100520008BE00E94F8134091000150910101569513
:1005300047955695479561E080E00E94F8134091F9
:10054000000150910101569547955695479560E0F9
:100550008BE00E94F81340910001509101015695E3
:1005600047955695479560E089E00E94F8134091C1
:100570000001509101015695479560E08BE00E9483
:10058000F8134091000150910101569547955695F9
:10059000479560E089E00E94F813809100019091F6
:1005A000010196958795969587950E94EA1340914B
:1005B0000001509101015695479560E087E00E9447
:1005C000F8134091000150910101569547955695B9
:1005D000479560E086E00E94F813809100019091B9
:1005E000010196958795969587950E94EA1340910B
:1005F0000001509101015695479561E08BE00E9402
:10060000F813409100015091010156954795569578
:10061000479561E087E00E94F81380910001909176
:10062000010196958795969587950E94EA13C0E0FB
:1006300031C0409100015091010156954795569562
:10064000479561E087E00E94F813409100015091C6
:100650000101569547955695479561E089E00E94BE
:10066000F813409100015091010156954795569518
:10067000479561E087E00E94F81340910001509196
:100680000101569547955695479561E086E00E9491
:10069000F813CF5FC33068F240910001509101011F
:1006A0005695479561E08BE00E94F8134091000158
:1006B00050910101569547955695479561E087E021
:1006C0000E94F81380910001909101019695879501
:1006D000969587950E94EA1340910001509101017F
:1006E000569547955695479561E087E00E94F81327
:1006F000C0E031C0409100015091010156954795ED
:100700005695479561E089E00E94F81340910001F9
:1007100050910101569547955695479561E087E0C0
:100720000E94F813409100015091010156954795A0
:100730005695479561E086E00E94F81340910001CC
:1007400050910101569547955695479561E087E090
:100750000E94F813CF5FC23068F28091000190913F
:10076000010196958795969587950E94EA13409189
:100770000001509101015695479561E087E00E9484
:10078000F81340910001509101015695479561E0A1
:1007900089E00E94F81340910001509101015695A3
:1007A00047955695479561E086E00E94F813809141
:1007B00000019091010196958795969587950E94E5
:1007C000EA13C0E031C040910001509101015695FB
:1007D00047955695479561E086E00E94F813409151
:1007E000000150910101569547955695479561E056
:1007F00087E00E94F8134091000150910101569545
:1008000047955695479561E086E00E94F813409120
:10081000000150910101569547955695479561E025
:1008200085E00E94F813CF5FC23068F2409100016A
:1008300050910101569547955695479561E086E0A0
:100840000E94F8138091000190910101969587957F
:10085000969587950E94EA134091000150910101FD
:10086000569547955695479561E086E00E94F813A6
:1008700080910001909101019695879596958795B5
:100880000E94EA134091000150910101569547954D
:1008900061E089E00E94F81340910001509101014C
:1008A000569547955695479561E086E00E94F81366
:1008B0008091000190910101969587959695879575
:1008C0000E94EA13C0E031C0409100015091010143
:1008D000569547955695479561E086E00E94F81336
:1008E00040910001509101015695479556954795C5
:1008F00061E087E00E94F8134091000150910101EE
:10090000569547955695479561E086E00E94F81305
:100910004091000150910101569547955695479594
:1009200061E085E00E94F813CF5FC33068F28091E8
:10093000000190910101AC01569547955695479558
:1009400096958795480F591F61E080E00E94F81343
:100950004091000150910101569547955695479554
:1009600061E080E00E94F813409100015091010184
:10097000569547955695479560E087E00E94F81395
:100980004091000150910101569547955695479524
:1009900060E089E00E94F81340910001509101014C
:1009A000569547955695479560E08BE00E94F81361
:1009B00040910001509101015695479556954795F4
:1009C00061E082E00E94F8138091000190910101A2
:1009D000AC01569547955695479596958795480F3E
:1009E000591F61E080E00E94F8134091000150918E
:1009F0000101569547955695479561E080E00E9424
:100A0000F813409100015091010156954795569574
:100A100047955695479560E087E00E94F81340910E
:100A20000001509101015695479556954795569569
:100A3000479560E088E00E94F813409100015091D2
:100A4000010156954795569547955695479560E00F
:100A500089E00E94F81340910001509101015695E0
:100A60004795569547955695479560E08AE00E94D0
:100A7000F813409100015091010156954795569504
:100A800047955695479560E08BE00E94F81340919A
:100A9000000150910101569547955695479561E0A3
:100AA00080E00E94F8134091000150910101569599
:100AB00047955695479560E08BE00E94F81380912A
:100AC00000019091010196958795969587950E94D2
:100AD000EA1340910001509101015695479561E05C
:100AE00080E00E94F8134091000150910101569559
:100AF00047955695479560E08BE00E94F8138091EA
:100B000000019091010196958795969587950E9491
:100B1000EA1340910001509101015695479561E01B
:100B200080E00E94F8134091000150910101569518
:100B300047955695479560E08BE00E94F8138091A9
:100B400000019091010196958795969587950E9451
:100B5000EA1340910001509101015695479561E0DB
:100B600080E00E94F81340910001509101015695D8
:100B700047955695479560E08BE00E94F813809169
:100B8000000190910101969587950E94EA1340918A
:100B900000015091010156954795569547955695F8
:100BA000479560E08BE00E94F8134091000150915E
:100BB000010156954795569547955695479561E09D
:100BC00080E00E94F8134091000150910101569578
:100BD0004795569547955695479561E082E00E9466
:100BE000F8138091000190910101AC015695479551
:100BF0005695479556954795880F991F880F991FC9
:100C0000480F591F61E084E00E94F81380910001B1
:100C100090910101880F991F880F991F0E94EA1374
:100C2000CF910895CF9340910001509101015695C5
:100C300047955695479561E084E00E94F8134091EE
:100C4000000150910101569547955695479561E0F1
:100C500084E00E94F8138091000190910101969523
:100C60008795969587950E94EA13409100015091CF
:100C70000101569547955695479561E084E00E949D
:100C8000F8138091000190910101969587959695B2
:100C900087950E94EA1340910001509101015695F9
:100CA00047955695479561E080E00E94F813409182
:100CB000000150910101569547955695479561E081
:100CC00084E00E94F81380910001909101019695B3
:100CD0008795969587950E94EA134091000150915F
:100CE0000101569547955695479561E087E00E942A
:100CF000F8132091000130910101C9019695879563
:100D00003695279536952795820F931F0E94EA13F3
:100D100040910001509101015695479560E087E0B0
:100D20000E94F8138091000190910101969587959A
:100D30000E94EA13C0E033C14091000150910101CB
:100D4000569547955695479561E080E00E94F813C7
:100D50008091000190910101969587950E94EA1378
:100D60004091000150910101569547955695479540
:100D700060E087E00E94F8138091000190910101EA
:100D8000969587950E94EA134091000150910101C8
:100D9000569547955695479560E084E00E94F81374
:100DA0008091000190910101969587950E94EA1328
:100DB00040910001509101015695479556954795F0
:100DC00060E089E00E94F813809100019091010198
:100DD00096958795969587950E94EA134091000114
:100DE00050910101569547955695479560E08BE0E7
:100DF0000E94F813809100019091010196958795CA
:100E0000969587950E94EA13409100015091010147
:100E1000569547955695479560E08AE00E94F813ED
:100E2000409100015091010156954795569547957F
:100E300060E089E00E94F813809100019091010127
:100E400096958795969587950E94EA1340910001A3
:100E500050910101569547955695479560E087E07A
:100E60000E94F81340910001509101015695479559
:100E70005695479561E084E00E94F8138091000147
:100E80009091010196958795969587950E94EA1312
:100E9000409100015091010156954795569547950F
:100EA00061E087E00E94F813409100015091010138
:100EB000569547955695479561E089E00E94F8134D
:100EC000809100019091010196958795969587955F
:100ED0000E94EA13409100015091010156954795F7
:100EE0005695479561E085E00E94F8134091000116
:100EF00050910101569547955695479561E087E0D9
:100F00000E94F813809100019091010196958795B8
:100F1000969587950E94EA13409100015091010136
:100F2000569547955695479561E084E00E94F813E1
:100F300080910001909101019695879596958795EE
:100F40000E94EA1340910001509101015695479586
:100F50005695479561E080E00E94F81340910001AA
:100F600050910101569547955695479561E082E06D
:100F70000E94F81340910001509101015695479548
:100F80005695479560E08BE00E94F8138091000130
:100F900090910101969587950E94EA13CF5FC23028
:100FA00008F4CACEC0E05DC28091000190910101B9
:100FB000969587950E94EA13409100015091010196
:100FC000569547955695479561E087E00E94F8133E
:100FD00040910001509101015695479556954795CE
:100FE00061E086E00E94F8134091000150910101F8
:100FF000569547955695479561E085E00E94F81310
:10100000409100015091010156954795569547959D
:1010100061E083E00E94F81380910001909101014A
:1010200096958795969587950E94EA1340910001C1
:1010300050910101569547955695479561E084E09A
:101040000E94F81380910001909101019695879577
:10105000969587950E94EA134091000150910101F5
:10106000569547955695479560E088E00E94F8139D
:10107000409100015091010156954795569547952D
:1010800060E089E00E94F813409100015091010155
:10109000569547955695479561E080E00E94F81374
:1010A000809100019091010196958795969587957D
:1010B0000E94EA1340910001509101015695479515
:1010C0005695479560E089E00E94F8134091000131
:1010D00050910101569547955695479561E080E0FE
:1010E0000E94F813409100015091010156954795D7
:1010F0005695479561E082E00E94F81380910001C7
:1011000090910101969587950E94EA134091000104
:1011100050910101569547955695479561E087E0B6
:101120000E94F81340910001509101015695479596
:101130005695479561E086E00E94F81340910001C2
:1011400050910101569547955695479561E085E088
:101150000E94F81340910001509101015695479566
:101160005695479561E083E00E94F8138091000155
:101170009091010196958795969587950E94EA131F
:10118000409100015091010156954795569547951C
:1011900061E084E00E94F8138091000190910101C8
:1011A00096958795969587950E94EA134091000140
:1011B00050910101569547955695479562E080E01C
:1011C0000E94F813809100019091010196958795F6
:1011D000969587950E94EA13409100015091010174
:1011E000569547955695479562E080E00E94F81322
:1011F00040910001509101015695479562E080E0D1
:101200000E94F813809100019091010196958795B5
:101210000E94EA13809100019091010196958795B3
:101220000E94EA13409100015091010156954795A3
:101230005695479561E087E00E94F81340910001C0
:1012400050910101569547955695479561E086E086
:101250000E94F81340910001509101015695479565
:101260005695479561E085E00E94F8134091000192
:1012700050910101569547955695479561E083E059
:101280000E94F81380910001909101019695879535
:10129000969587950E94EA134091000150910101B3
:1012A000569547955695479561E084E00E94F8135E
:1012B000809100019091010196958795969587956B
:1012C0000E94EA1340910001509101015695479503
:1012D0005695479560E088E00E94F8134091000120
:1012E00050910101569547955695479560E089E0E4
:1012F0000E94F813409100015091010156954795C5
:101300005695479561E080E00E94F81380910001B6
:101310009091010196958795969587950E94EA137D
:10132000409100015091010156954795569547957A
:1013300060E089E00E94F8134091000150910101A2
:10134000569547955695479561E080E00E94F813C1
:10135000409100015091010156954795569547954A
:1013600061E082E00E94F8138091000190910101F8
:10137000969587950E94EA134091000150910101D2
:10138000569547955695479561E083E00E94F8137E
:101390008091000190910101969587950E94EA1332
:1013A00040910001509101015695479556954795FA
:1013B00061E082E00E94F8138091000190910101A8
:1013C000969587950E94EA13409100015091010182
:1013D000569547955695479561E080E00E94F81331
:1013E0008091000190910101969587950E94EA13E2
:1013F00040910001509101015695479556954795AA
:1014000060E087E00E94F8134091000150910101D3
:10141000569547955695479560E087E00E94F813EA
:1014200080910001909101019695879596958795F9
:101430000E94EA1340910001509101015695479591
:101440005695479560E087E00E94F813809100016F
:101450009091010196958795969587950E94EA133C
:10146000CF5FC23008F4A0CD40910001509101013E
:10147000569547955695479561E080E00E94F81390
:101480004091000150910101569547955695479519
:1014900061E080E00E94F8138091000190910101C9
:1014A00096958795969587950E94EA13409100013D
:1014B00050910101569547955695479561E080E01A
:1014C0000E94F813809100019091010196958795F3
:1014D000969587950E94EA13409100015091010171
:1014E000569547955695479561E080E00E94F81320
:1014F00040910001509101015695479556954795A9
:1015000061E082E00E94F813809100019091010156
:1015100096958795969587950E94EA1340910001CC
:1015200050910101569547955695479561E084E0A5
:101530000E94F81340910001509101015695479582
:101540005695479561E080E00E94F8138091000174
:101550009091010196958795969587950E94EA133B
:101560004091000150910101569547955695479538
:1015700060E089E00E94F813409100015091010160
:101580005695479560E087E00E94F813809100012E
:1015900090910101969587950E94EA134091000170
:1015A00050910101569547955695479561E080E029
:1015B0000E94F81340910001509101015695479502
:1015C0005695479561E080E00E94F81380910001F4
:1015D0009091010196958795969587950E94EA13BB
:1015E00040910001509101015695479556954795B8
:1015F00061E080E00E94F813809100019091010168
:1016000096958795969587950E94EA1340910001DB
:1016100050910101569547955695479561E080E0B8
:101620000E94F81340910001509101015695479591
:101630005695479561E082E00E94F81340910001C1
:1016400050910101569547955695479561E084E084
:101650000E94F8138091000190910101880F991F59
:101660000E94EA134091000150910101569547955F
:101670005695479561E080E00E94F8134091000183
:1016800050910101569547955695479561E080E048
:101690000E94F81380910001909101019695879521
:1016A000969587950E94EA1340910001509101019F
:1016B000569547955695479561E080E00E94F8134E
:1016C0008091000190910101969587959695879557
:1016D0000E94EA13409100015091010156954795EF
:1016E0005695479561E080E00E94F8134091000113
:1016F00050910101569547955695479561E082E0D6
:101700000E94F813809100019091010196958795B0
:10171000969587950E94EA1340910001509101012E
:10172000569547955695479561E084E00E94F813D9
:101730004091000150910101569547955695479566
:1017400061E080E00E94F813809100019091010116
:1017500096958795969587950E94EA13409100018A
:1017600050910101569547955695479560E089E05F
:101770000E94F81340910001509101015695479540
:1017800060E087E00E94F8138091000190910101D0
:10179000969587950E94EA134091000150910101AE
:1017A000569547955695479561E084E00E94F81359
:1017B00040910001509101015695479556954795E6
:1017C00061E084E00E94F813809100019091010192
:1017D00096958795969587950E94EA13409100010A
:1017E00050910101569547955695479561E084E0E3
:1017F0000E94F813809100019091010196958795C0
:10180000969587950E94EA1340910001509101013D
:10181000569547955695479561E080E00E94F813EC
:101820004091000150910101569547955695479575
:1018300061E084E00E94F813809100019091010121
:1018400096958795969587950E94EA134091000199
:10185000509101015695479561E087E00E94F81389
:101860008091000190910101969587950E94EA135D
:1018700040910001509101015695479560E087E045
:101880000E94F8138091000190910101969587952F
:101890000E94EA13C0E033C1409100015091010160
:1018A000569547955695479561E080E00E94F8135C
:1018B0008091000190910101969587950E94EA130D
:1018C00040910001509101015695479556954795D5
:1018D00060E087E00E94F81380910001909101017F
:1018E000969587950E94EA1340910001509101015D
:1018F000569547955695479560E084E00E94F81309
:101900008091000190910101969587950E94EA13BC
:101910004091000150910101569547955695479584
:1019200060E089E00E94F81380910001909101012C
:1019300096958795969587950E94EA1340910001A8
:1019400050910101569547955695479560E08BE07B
:101950000E94F8138091000190910101969587955E
:10196000969587950E94EA134091000150910101DC
:10197000569547955695479560E08AE00E94F81382
:101980004091000150910101569547955695479514
:1019900060E089E00E94F8138091000190910101BC
:1019A00096958795969587950E94EA134091000138
:1019B00050910101569547955695479560E087E00F
:1019C0000E94F813409100015091010156954795EE
:1019D0005695479561E084E00E94F81380910001DC
:1019E0009091010196958795969587950E94EA13A7
:1019F00040910001509101015695479556954795A4
:101A000061E087E00E94F8134091000150910101CC
:101A1000569547955695479561E089E00E94F813E1
:101A200080910001909101019695879596958795F3
:101A30000E94EA134091000150910101569547958B
:101A40005695479561E085E00E94F81340910001AA
:101A500050910101569547955695479561E087E06D
:101A60000E94F8138091000190910101969587954D
:101A7000969587950E94EA134091000150910101CB
:101A8000569547955695479561E084E00E94F81376
:101A90008091000190910101969587959695879583
:101AA0000E94EA134091000150910101569547951B
:101AB0005695479561E080E00E94F813409100013F
:101AC00050910101569547955695479561E082E002
:101AD0000E94F813409100015091010156954795DD
:101AE0005695479560E08BE00E94F81380910001C5
:101AF00090910101969587950E94EA13CF5FC230BD
:101B000008F4CACEC0E0C1C140910001509101016A
:101B1000569547955695479561E084E00E94F813E5
:101B200040910001509101015695479561E080E098
:101B30000E94F8134091000150910101569547957C
:101B40005695479560E087E00E94F8138091000168
:101B500090910101969587950E94EA1340910001AA
:101B6000509101015695479560E088E00E94F81376
:101B70004091000150910101569547955695479522
:101B800060E089E00E94F81340910001509101014A
:101B90005695479561E085E00E94F8134091000159
:101BA00050910101569547955695479561E085E01E
:101BB0000E94F813409100015091010156954795FC
:101BC00060E089E00E94F81380910001909101018A
:101BD000969587950E94EA1340910001509101016A
:101BE000569547955695479560E08BE00E94F8130F
:101BF00040910001509101015695479561E089E0BF
:101C00000E94F813409100015091010156954795AB
:101C10005695479561E089E00E94F81340910001D4
:101C200050910101569547955695479561E089E099
:101C30000E94F8134091000150910101569547957B
:101C400061E087E00E94F81340910001509101018A
:101C5000569547955695479561E085E00E94F813A3
:101C60004091000150910101569547955695479531
:101C700061E084E00E94F81340910001509101015D
:101C80005695479561E080E00E94F813409100016D
:101C900050910101569547955695479560E089E02A
:101CA0000E94F8134091000150910101569547950B
:101CB00060E087E00E94F81380910001909101019B
:101CC000969587950E94EA13409100015091010179
:101CD000569547955695479561E084E00E94F81324
:101CE00040910001509101015695479561E080E0D7
:101CF0000E94F813409100015091010156954795BB
:101D00005695479560E087E00E94F81380910001A6
:101D100090910101969587950E94EA1340910001E8
:101D2000509101015695479560E088E00E94F813B4
:101D30004091000150910101569547955695479560
:101D400060E089E00E94F813409100015091010188
:101D50005695479561E085E00E94F8134091000197
:101D600050910101569547955695479561E085E05C
:101D70000E94F8134091000150910101569547953A
:101D800060E089E00E94F8138091000190910101C8
:101D9000969587950E94EA134091000150910101A8
:101DA000569547955695479560E08BE00E94F8134D
:101DB00040910001509101015695479561E085E001
:101DC0000E94F813409100015091010156954795EA
:101DD0005695479561E085E00E94F8134091000117
:101DE00050910101569547955695479561E085E0DC
:101DF0000E94F813409100015091010156954795BA
:101E000061E084E00E94F8134091000150910101CB
:101E1000569547955695479561E082E00E94F813E4
:101E2000409100015091010156954795569547956F
:101E300061E080E00E94F81340910001509101019F
:101E40005695479560E082E00E94F81340910001AA
:101E500050910101569547955695479560E082E06F
:101E60000E94F81340910001509101015695479549
:101E700061E080E00E94F8138091000190910101DF
:101E8000969587950E94EA13CF5FC23008F43CCE46
:101E900040910001509101015695479556954795FF
:101EA00061E080E00E94F81340910001509101012F
:101EB000569547955695479561E080E00E94F81346
:101EC000809100019091010196958795969587954F
:101ED0000E94EA13409100015091010156954795E7
:101EE0005695479561E080E00E94F81380910001CB
:101EF0009091010196958795969587950E94EA1392
:101F0000409100015091010156954795569547958E
:101F100061E080E00E94F8134091000150910101BE
:101F20005695479561E082E00E94F81340910001C8
:101F300050910101569547955695479561E084E08B
:101F40000E94F81340910001509101015695479568
:101F50005695479561E080E00E94F813809100015A
:101F60009091010196958795969587950E94EA1321
:101F7000409100015091010156954795569547951E
:101F800060E089E00E94F813409100015091010146
:101F900060E087E00E94F813409100015091010138
:101FA000569547955695479561E080E00E94F81355
:101FB00040910001509101015695479556954795DE
:101FC00061E080E00E94F81380910001909101018E
:101FD00096958795969587950E94EA134091000102
:101FE00050910101569547955695479561E080E0DF
:101FF0000E94F813809100019091010196958795B8
:10200000969587950E94EA13409100015091010135
:10201000569547955695479561E080E00E94F813E4
:10202000409100015091010156954795569547956D
:1020300061E082E00E94F81340910001509101019B
:10204000569547955695479561E084E00E94F813B0
:102050008091000190910101969587950E94EA1365
:10206000409100015091010156954795569547952D
:1020700061E084E00E94F813409100015091010159
:10208000569547955695479561E087E00E94F8136D
:1020900040910001509101015695479556954795FD
:1020A00062E084E00E94F813409100015091010128
:1020B000569547955695479562E080E00E94F81343
:1020C00040910001509101015695479556954795CD
:1020D00062E082E00E94F8134091000150910101FA
:1020E000569547955695479562E087E00E94F8130C
:1020F000409100015091010156954795569547959D
:1021000061E080E00E94F8134091000150910101CC
:10211000569547955695479561E080E00E94F813E3
:1021200080910001909101019695879596958795EC
:102130000E94EA1340910001509101015695479584
:102140005695479561E080E00E94F8138091000168
:102150009091010196958795969587950E94EA132F
:10216000409100015091010156954795569547952C
:1021700061E080E00E94F81340910001509101015C
:102180005695479561E082E00E94F8134091000166
:1021900050910101569547955695479561E084E029
:1021A0000E94F81340910001509101015695479506
:1021B0005695479561E080E00E94F81380910001F8
:1021C0009091010196958795969587950E94EA13BF
:1021D00040910001509101015695479556954795BC
:1021E00060E089E00E94F8134091000150910101E4
:1021F00060E087E00E94F8134091000150910101D6
:10220000569547955695479561E084E00E94F813EE
:10221000409100015091010156954795569547957B
:1022200061E084E00E94F813809100019091010127
:1022300096958795969587950E94EA13409100019F
:1022400050910101569547955695479561E084E078
:102250000E94F81380910001909101019695879555
:10226000969587950E94EA134091000150910101D3
:10227000569547955695479561E080E00E94F81382
:10228000409100015091010156954795569547950B
:1022900061E084E00E94F8138091000190910101B7
:1022A00096958795969587950E94EA13409100012F
:1022B00050910101569547955695479561E087E005
:1022C0000E94F8132091000130910101C9019695F7
:1022D00087953695279536952795820F931F0E94EF
:1022E000EA1340910001509101015695479560E035
:1022F00087E00E94F813809100019091010196956A
:1023000087950E94EA13C0E0C1C14091000150913D
:102310000101569547955695479561E084E00E94E6
:10232000F81340910001509101015695479561E0E5
:1023300080E00E94F81340910001509101015695F0
:1023400047955695479560E087E00E94F813809185
:10235000000190910101969587950E94EA134091A2
:102360000001509101015695479560E088E00E9478
:10237000F8134091000150910101569547955695EB
:10238000479560E089E00E94F81340910001509168
:1023900001015695479561E085E00E94F813409150
:1023A000000150910101569547955695479561E07A
:1023B00085E00E94F813409100015091010156956B
:1023C000479560E089E00E94F813809100019091A8
:1023D0000101969587950E94EA1340910001509162
:1023E0000101569547955695479560E08BE00E9410
:1023F000F81340910001509101015695479561E015
:1024000089E00E94F8134091000150910101569516
:1024100047955695479561E089E00E94F8134091F1
:10242000000150910101569547955695479561E0F9
:1024300089E00E94F81340910001509101015695E6
:10244000479561E087E00E94F813409100015091A8
:102450000101569547955695479561E085E00E94A4
:10246000F8134091000150910101569547955695FA
:10247000479561E084E00E94F8134091000150917B
:1024800001015695479561E080E00E94F813409164
:10249000000150910101569547955695479560E08A
:1024A00089E00E94F8134091000150910101569576
:1024B000479560E087E00E94F813809100019091B9
:1024C0000101969587950E94EA1340910001509171
:1024D0000101569547955695479561E084E00E9425
:1024E000F81340910001509101015695479561E024
:1024F00080E00E94F813409100015091010156952F
:1025000047955695479560E087E00E94F8138091C3
:10251000000190910101969587950E94EA134091E0
:102520000001509101015695479560E088E00E94B6
:10253000F813409100015091010156954795569529
:10254000479560E089E00E94F813409100015091A6
:1025500001015695479561E085E00E94F81340918E
:10256000000150910101569547955695479561E0B8
:1025700085E00E94F81340910001509101015695A9
:10258000479560E089E00E94F813809100019091E6
:102590000101969587950E94EA13409100015091A0
:1025A0000101569547955695479560E08BE00E944E
:1025B000F81340910001509101015695479561E053
:1025C00085E00E94F8134091000150910101569559
:1025D00047955695479561E085E00E94F813409134
:1025E000000150910101569547955695479561E038
:1025F00085E00E94F8134091000150910101569529
:10260000479561E084E00E94F813409100015091E9
:102610000101569547955695479561E082E00E94E5
:10262000F813409100015091010156954795569538
:10263000479561E080E00E94F813409100015091BD
:1026400001015695479560E082E00E94F8134091A1
:10265000000150910101569547955695479560E0C8
:1026600082E00E94F81340910001509101015695BB
:10267000479561E080E00E94F813809100019091FD
:102680000101969587950E94EA13CF5FC23008F446
:102690003CCE40910001509101015695479561E073
:1026A00080E00E94F81380910001909101019695BD
:1026B0008795969587950E94EA1340910001509165
:1026C00001015695479560E087E00E94F8138091DC
:1026D00000019091010196958795969587950E94A6
:1026E000EA1340910001509101015695479560E031
:1026F00084E00E94F8134091000150910101569529
:1027000047955695479560E089E00E94F8134091FF
:102710000001509101015695479560E08BE00E94C1
:10272000F813409100015091010156954795569537
:10273000479560E089E00E94F813409100015091B4
:102740000101569547955695479560E088E00E94AF
:10275000F81340910001509101015695479560E0B2
:102760008AE00E94F81340910001509101015695B2
:1027700047955695479560E088E00E94F813409190
:1027800000015091010156954795569547955695EC
:10279000479560E084E00E94F81340910001509159
:1027A000010156954795569547955695479560E092
:1027B00082E00E94F8134091000150910101CA018A
:1027C00096958795480F591F60E084E00E94F813A2
:1027D000CF91089507C08FE99FE00197F1F700C0FE
:1027E0000000C9019C0121503109892BA1F70895EE
:1027F000CF93DF93EA010E94061607C0EFE9FFE0DE
:102800003197F1F700C00000EC01CE010197CD2B0C
:10281000A9F70E94FD158FE39CE90197F1F700C02D
:102820000000DF91CF91089584B1886084B985B1AB
:10283000877F85B987B1807C87B988B18F6388B974
:102840008AB183708AB98BB18C6F8BB90895CF939D
:10285000DF93CDB7DEB7A0970FB6F894DEBF0FBEFB
:10286000CDBF0E9414140E94E5150E94CE1460E8AA
:1028700075E280E090E00E9425162FEF80E792E05D
:10288000215080409040E1F700C0000082E091E0DC
:102890000E945E1681E291E00E945E1688E391E05C
:1028A0000E945E1688E591E00E945E1688E791E03E
:1028B0000E945E1600E010E060E2CE0101960E94E8
:1028C0008D161816BCF04FC0E1E0F0E0EC0FFD1FD4
:1028D000E20FF31F90814FE9490F4A3140F4E1E0E4
:1028E000F0E0EC0FFD1FE20FF31F905290832F5F7B
:1028F0003F4F02C020E030E0482F082E000C550B5F
:10290000241735070CF367E971E0CE0101960E94A8
:102910003717892B39F48AE991E00E945E1601E0AD
:1029200011E021C068EB71E0CE0101960E943717DB
:10293000892B39F48BEB91E00E945E1602E011E0E6
:1029400012C069ED71E0CE0101960E943717892B04
:1029500031F48FED91E00E945E1610E004C089EF23
:1029600091E00E945E16113081F4013019F40E944A
:102970006B0004C0023011F40E94120680E192E064
:102980000E945E1600E010E002C00E9417158FE959
:102990009FE00197F1F700C000008ECF87B18E7FD6
:1029A00087B988B1816088B987B18D7F87B988B1CF
:1029B000826088B987B18B7F87B988B1846088B914
:1029C00087B1877F87B988B1886088B987B18F7EE2
:1029D00087B988B1806188B987B18F7D87B988B19F
:1029E000806288B98AB18B7F8AB98BB184608BB9D8
:1029F0008AB1877F8AB98BB188608BB98AB18F7EA3
:102A00008AB98BB180618BB98AB18F7D8AB98BB15C
:102A100080628BB98AB18F7B8AB98BB180648BB9A4
:102A20008AB18F778AB98BB180688BB9089580E0BD
:102A30008FC0482F50E04C305105E0F5FA01EC5CB6
:102A4000FF4F0C94311796B1917035C096B19695A1
:102A5000917031C096B192FB992790F92CC096B134
:102A600093FB992790F927C096B19295917023C056
:102A700096B195FB992790F91EC099B192FB9927C1
:102A800090F919C099B193FB992790F914C099B1A5
:102A90009295917010C099B195FB992790F90BC050
:102AA00099B196FB992790F906C099B1991F99277A
:102AB000991F01C091E091114AC0EFEFFCE73197F7
:102AC000F1F700C00000482F50E04C305105E0F510
:102AD000FA01E05CFF4F0C94311796B1917035C04C
:102AE00096B19695917031C096B192FB992790F965
:102AF0002CC096B193FB992790F927C096B1929577
:102B0000917023C096B195FB992790F91EC099B199
:102B100092FB992790F919C099B193FB992790F9E5
:102B200014C099B19295917010C099B195FB9927F5
:102B300090F90BC099B196FB992790F906C099B10D
:102B4000991F9927991F01C091E0992329F08F5F60
:102B50008C3008F46ECF8FEF882324F060E00E9461
:102B6000061608950E94FD15089590E00196161628
:102B700054F00EC08230910518F09695879502C0EA
:102B800081E090E0622F2FEF260F6111F3CF10C08C
:102B9000662374F403C0880F991F622F21E0260F6B
:102BA0006111F9CF813021E0920710F080E091E0CF
:102BB000009711F0019702C080E090E08F3F9105EF
:102BC00019F010F08FEF90E00895E0EBF0E0108244
:102BD000A1EBB0E01C921092B200808182608083F1
:102BE0008081806480838C9185608C938DE8809354
:102BF000B30080818F7B80830895E0EBF0E08081DB
:102C00008F7B808385B1877F85B908958C3018F0DC
:102C10000E94FD150895E82FF0E0EA5CFD4F8081E9
:102C20000E94B5158093B300E0EBF0E080818F77D0
:102C30008083808182608083A1EBB0E08C91877F6C
:102C40008C938081806480830895DC01CB01880FA0
:102C5000991FAA1FBB1F880F991FAA1FBB1F9C018A
:102C6000AD01220F331F441F551F220F331F441F76
:102C7000551F60E074E284EF90E00E940F1721502E
:102C800031093093C5002093C4001092C00088E938
:102C90008093C10086E08093C20078940895CF931A
:102CA000C82F8A3019F48DE00E944F168091C00021
:102CB00085FFFCCFC093C600CF910895CF93DF93DB
:102CC000EC0103C021960E944F1688818111FACF32
:102CD000DF91CF910895909143028091420298171D
:102CE000C9F0E0914202F0E0EC5BFD4F8081209161
:102CF000420230E02F5F3F4F2F733078332334F49C
:102D000021503109206C3F6F2F5F3F4F20934202CB
:102D100090E008958FEF9FEF08950F931F93CF9347
:102D2000DF93AC01662309F442C02091420215C032
:102D300030E0F901EC5BFD4F90819A30A1F09D30BD
:102D4000A1F02F5F3F4F2F733078332334F421509D
:102D50003109206C3F6F2F5F3F4F90914302291341
:102D6000E7CF80E003C081E001C081E0882309F162
:102D7000D62F8A01C0E00DC08A3089F08D3079F0FD
:102D80009FEF9D0FC91728F4F801EC0FF11D808308
:102D9000CF5F0E946B168F3F2FEF920769F7F80104
:102DA000EC0FF11D10820E946B168C2F03C080E087
:102DB00001C080E0DF91CF911F910F9108951F9284
:102DC0000F920FB60F9211242F933F938F939F93DF
:102DD000EF93FF933091C6008091430290E00196FB
:102DE0008F739078992324F40197806C9F6F0196DC
:102DF00020914202281741F0E0914302F0E0EC5BA1
:102E0000FD4F308380934302FF91EF919F918F910B
:102E10003F912F910F900FBE0F901F901895A1E238
:102E20001A2EAA1BBB1BFD010DC0AA1FBB1FEE1F44
:102E3000FF1FA217B307E407F50720F0A21BB30B8F
:102E4000E40BF50B661F771F881F991F1A9469F70B
:102E500060957095809590959B01AC01BD01CF0167
:102E60000895EE0FFF1F0590F491E02D0994FB01EA
:102E7000DC018D91019080190110D9F3990B08950F
:042E8000F894FFCFF4
:102E84008A024269656E76656E69646F20616C20A2
:102E94005069616E6F207669612055415254210A50
:102EA40000436F6D616E646F7320646973706F6E3D
:102EB40069626C65733A0A00202043312020202D7A
:102EC4003E20526570726F64756369722043616E4F
:102ED40063696F6E20310A00202043322020202DA8
:102EE4003E20526570726F64756369722043616E2F
:102EF40063696F6E20320A0020205049414E4F2DE5
:102F04003E204D6F646F207069616E6F206D616E3D
:102F140075616C0A3E20004331003E3E20526570CC
:102F2400726F64756369656E646F2043414E4349F3
:102F34004F4E20310A3E20004332003E3E2052656F
:102F440070726F64756369656E646F2043414E43AC
:102F5400494F4E20320A3E20005049414E4F003E18
:102F64003E204D6F646F205049414E4F2061637481
:102F7400697661646F0A3E20003F3F20436F6D61B4
:102F84006E646F20696E76616C69646F0A3E20001E
:102F94003E3E2043616E63696F6E2066696E616CAC
:102FA400697A6164612E204D6F646F205049414EEF
:102FB4004F2E0A3E2000EEE0D4C8BDB2A89E958DE7
:022FC400857E08
:00000001FF
