:020000020000FC
:02000000FFC03F
:020024008AC28E
:0200480020C2D4
:02004C00F4C1FD
:100200001124552408E00EBF0FEF0DBF02E000934C
:10021000690001E00DBB07E00093B1000FE304B9F2
:100220000FE307B900EF0AB908D007E610E04AD09B
:10023000E6D0789400C0C3D0FECF5524A0ECB6E041
:1002400008950F931196B11D5394052D073708F0AB
:10025000F4DF0F9108957F938F93EF93FF93EA2F2D
:10026000FB2F70E001E0159180E066D00F93012331
:10027000003011F06AD092D00F91000F8395883032
:10028000A0F37395783070F3FF91EF918F917F9188
:1002900008950F931F93EF93FF931081102B1083FA
:1002A000FF91EF911F910F9108950F931F93EF937B
:1002B000FF931081009510231083FF91EF911F9100
:1002C0000F91089510920002109201021093C50040
:1002D0000093C40008E90093C1000EE00093C2003F
:1002E00008951F932F933F934F93EF93FF93109194
:1002F000000220910102312F33953F7F3217A1F088
:10030000E0E0F1E0E10FF11D008330930002409145
:10031000C10040624093C1008894FF91EF914F91DA
:100320003F912F911F9108950894FF91EF914F9164
:100330003F912F911F9108950F930EE305B908E3A4
:1003400008B900E00BB90F9108957F938F930F9335
:100350001F93EF93FF93F6E0E0E2E70FF11D0491A6
:10036000F6E0E0E4E70FF11D1491FF27E02F012FE5
:100370009CDFF6E0E0E6E80FF11D0491F6E0E0E82E
:10038000E80FF11D1491FF27E02F012F82DFFF916D
:10039000EF911F910F918F917F9108952F933F932C
:1003A0004F9321E03AE045EE4A95F1F73A95E1F7AF
:1003B0002A95D1F700004F913F912F910895403039
:1003C00069F0413069F0423069F0433069F04430FF
:1003D00069F0453069F0463069F00EC0ADDF0EC0FF
:1003E0003ADF0CC038DF0AC036DF08C034DF06C091
:1003F00032DF04C030DF02C09FDF00C008950F93DA
:10040000EF93FF93E0E0FAE00591003011F069DF2F
:10041000FBCFFF91EF910F9108950F93EF93FF930F
:10042000E0E0FCE00591003011F05BDFFBCFFF91D5
:10043000EF910F9108950F930FB70F931F932F9381
:100440003F934F93FF93EF9310910002209101028D
:10045000121731F44091C1004F7D4093C1000BC091
:10046000E0E0F1E0E20FF11D00810093C60023956A
:100470002F7F20930102EF91FF914F913F912F9198
:100480001F910F910FBF0F9118950F930FB70F93F7
:100490001F930091C600003369F0013391F00233DD
:1004A000B9F00333E9F0043319F1053349F10633A8
:1004B00079F136C0C2DE00E00093700000E0402F0A
:1004C00037C0BBDE01E0402F01E00093700030C078
:1004D000A0E0B8E000E00093700002E0402F28C0E8
:1004E000A8E0B8E000E00093700003E0402F20C0D7
:1004F000A0E1B8E000E00093700004E0402F18C0D5
:10050000A8E1B8E000E00093700005E0402F10C0C3
:10051000A0E2B8E000E00093700006E0402F08C0C1
:1005200000E00093700003E6402F77DF68DF00C033
:100530001F910F910FBF0F9118950F930FB70F9346
:10054000439402E0041510F47CDE44240F910FBFA5
:040550000F9118955A
:080620002525252528252828A1
:0806400008021004082010203C
:080660002B2B2B282528282B49
:0806800010208004010102407A
:1006C0000000000000000000418181817F010101E4
:1006D0000000FF8989898981818100004689898993
:1006E0008989897200003F4080808080403F0000FF
:1006F000468989898989897200000000000000000C
:1007000081818181FF818181000046898989898970
:10071000897200000000000000007E8181998989B3
:10072000897A00003C4281818181423C0000FF8146
:0E07300081818181423C000000000000000039
:100800003C42A581A599423C3C42A58199A5423C28
:100810000066FFFFFF7E3C18183C7EFFFF7E3C1801
:080820003C7EBDFFFF24428174
:100A0000456C696A6120756E61206F7063696F6EF5
:100A10003A0A5B305D204170616761722070616EDF
:100A200074616C6C610A5B315D204D656E73616A47
:100A30006520646573706C617A616E74650A5B32FF
:100A40005D204361726974612066656C697A200A71
:100A50005B335D20436172697461207472697374E1
:100A6000650A5B345D20436F72617A6F6E0A5B3595
:100A70005D20526F6D626F0A5B365D20537061635B
:0C0A80006520496E76616465720A0A0008
:100C00004F7063696F6E20696E76616C69646121F3
:040C10000A0A0000CC
:00000001FF
