:020000020000FC
:02000000FFC03F
:020004003FC2F9
:0200080044C2F0
:0200240044C2D4
:020040002FC2CD
:02004800E3C112
:02004C00BBC136
:100200001124552408E00EBF0FEF0DBF02E000934C
:10021000690001E00DBB07E00093B1000FE304B9F2
:100220000FE307B900EF0AB907D007E610E049D09D
:10023000789400C0B1D0FECF5524A0ECB6E008956C
:100240000F931196B11D5394052D073708F0F4DF75
:100250000F9108957F938F93EF93FF93EA2FFB2FD6
:1002600070E000E8159180E054D00F930123003036
:1002700011F058D080D00F91069583958830A0F367
:100280007395783070F3FF91EF918F917F9108957E
:100290000F931F93EF93FF931081102B1083FF9107
:1002A000EF911F910F9108950F931F93EF93FF9379
:1002B0001081009510231083FF91EF911F910F91F2
:1002C000089510921001109211011093C50000932F
:1002D000C40008E90093C1000EE00093C200089535
:1002E0001091100120911101312F33953F70321779
:1002F00071F0E0E0F1E0E10FF11D008330931001B7
:100300004091C10040624093C100889408950894D0
:1003100008950F930FE005B900E008B90CEF0BB991
:100320000F9108957F938F930F931F93EF93FF93F4
:10033000F6E0E0E2E70FF11D0491F6E0E0E4E70FFC
:10034000F11D1491FF27E02F012FAEDFF6E0E0E66C
:10035000E80FF11D0491F6E0E0E8E80FF11D1491BB
:10036000FF27E02F012F94DFFF91EF911F910F9155
:100370008F917F9108952F933F934F9321E03AE01F
:1003800045EE4A95F1F73A95E1F72A95D1F7000045
:100390004F913F912F910895403059F0413051F0E5
:1003A000423051F0433049F0443041F0453039F0AB
:1003B00007C007C04FDF05C004C003C002C001C0B2
:1003C00000C008950F931F932F933F934F93FF9374
:1003D000EF931091100120911101121731F4409107
:1003E000C1004F7D4093C1000BC0E0E0F1E0E20F9F
:1003F000F11D00810093C60023952F7020931101F9
:10040000EF91FF914F913F912F911F910F9118956F
:100410000F930FB70F931F930091C600003359F04D
:10042000013381F00233A1F0033399F0043391F0EA
:10043000053389F011C000E00093700000E0402F08
:100440001CC01BC001E0402F01E00093700015C0EC
:1004500014C013C012C011C000E00093700059DF37
:1004600005E63EDF02E73CDF02E73ADF0FE638DF72
:1004700002E736DF0AE034DF00C01F910F910FBFA3
:100480000F9118950F930FB70F930F910FBF0F9107
:1004900018950F930FB70F930F910FBF0F911895EA
:1004A0000F930FB70F930F910FBF0F9118950F93E5
:1004B0000FB70F93439403E0041510F4C1DE4424F6
:0804C0000F910FBF0F91189579
:080620002B2B2B2B2525252592
:080640001020408001020408B3
:08066000252528282828282858
:08068000102001020408102003
:1006C0000000000000000000418181817F010101E4
:1006D0000000FF8989898981818100004689898993
:1006E0008989897200003F4080808080403F0000FF
:1006F000468989898989897200000000000000000C
:1007000081818181FF818181000046898989898970
:10071000897200000000000000007E8181998989B3
:10072000897A00003C4281818181423C0000FF8146
:0E07300081818181423C000000000000000039
:10080000456C696A6120756E61206F7063696F6EF7
:100810003A5C6E005B305D204170616761722070F0
:10082000616E74616C6C615C6E005B315D204D6566
:100830006E73616A6520646573706C617A616E7451
:10084000655C6E005B325D20436172697461206695
:10085000656C697A5C6E5B335D20436172697461BB
:10086000207472697374655C6E005B345D20526F36
:100870006D626F5C6E005B355D2053706163652057
:0A088000496E76616465725C6E00DB
:00000001FF
