S01500004C4344202D205465636C61646F2E7372656313
S11300000C9434000C9449000C9449000C9449005D
S11300100C9449000C9449000C9449000C94490038
S11300200C9449000C9449000C9449000C94490028
S11300300C9449000C9449000C9449000C94490018
S11300400C9449000C9449000C9449000C94490008
S11300500C9449000C9449000C9449000C944900F8
S11300600C9449000C94490011241FBECFEFD8E032
S1130070DEBFCDBF11E0A0E0B1E0ECE5F3E002C0EB
S113008005900D92AA31B107D9F70E9479010C9419
S1130090AC010C94000087B18F6087B988B18F6080
S11300A088B984B1807F84B985B18F6085B908959A
S11300B0843070F4643070F4E82FF0E0EE0FFF1F2A
S11300C0EE0FFF1FE95FFE4FE60FF11D80810895DB
S11300D080E0089580E008958BB188608BB985E055
S11300E08A95F1F700008BB1877F8BB987EC90E09C
S11300F00197F1F700C00000089580FF04C09BB190
S113010090619BB903C09BB19F7E9BB981FF04C0E2
S11301109BB190629BB903C09BB19F7D9BB982FF49
S113012004C09BB190649BB903C09BB19F7B9BB9F6
S113013083FF04C08BB180688BB903C08BB18F7708
S11301408BB90E946C000895CF93C82F662321F0C9
S11301508BB184608BB903C08BB18B7F8BB98C2F2F
S113016082958F700E947D008C2F8F700E947D007D
S1130170CF91089561E00E94A4000895CF93DF9386
S1130180EC0103C021960E94BA0088818111FACF44
S1130190DF91CF910895CF93C82F60E00E94A4000F
S11301A0C150C23030F48FE39FE10197F1F700C0F2
S11301B00000CF910895262F217030E0F901E95E07
S11301C0FE4F90818F70890F80680E94CB00089544
S11301D08AB18C6F8AB98BB18B7F8BB98BB1877FD6
S11301E08BB92FEF83EF91E0215080409040E1F7ED
S11301F000C0000083E00E947D008FE19EE401972F
S1130200F1F700C0000083E00E947D0087E592E0E2
S11302100197F1F700C0000083E00E947D0087E5AC
S113022092E00197F1F700C0000082E00E947D0097
S113023088E20E94CB008CE00E94CB0086E00E9402
S1130240CB0081E00E94CB000895CF93DF9380E040
S113025049C098B19F6098B998B121E030E0082E68
S113026002C0220F331F0A94E2F72095292328B9EC
S11302702AE12A95F1F700C093B19F709F3089F16C
S11302803FEF99EFE0E031509040E040E1F700C0EB
S1130290000093B19F709F3009F523C0C62F292F0A
S11302A030E0062E02C0359527950A94E2F720FD2A
S11302B013C00E94580023B130E00C2E02C03595C3
S11302C027950A94E2F720FFF6CFEFE3FCE9319794
S11302D0F1F700C000000AC06F5F01C060E0643045
S11302E0E8F28F5F843008F4B4CF80E0DF91CF91DF
S11302F008950E94E8000E944B0060E080E00E94A4
S1130300DB0080E091E00E94BE0061E080E00E949A
S1130310DB0086E091E00E94BE000E942501882354
S1130320A1F00E94BA002FEF86E191E121508040B4
S11303309040E1F700C0000080E10E94CB0080E221
S11303400E94BA0080E10E94CB008FE19EE40197F5
S10F0350F1F700C00000E1CFF894FFCFEB
S113035C5465636C613A003132334134353642377B
S10D036C3839432A302344004000CE
S9030000FC
