S01D000043657272616475726120656C656374726F6E6963612E73726563C5
S11300000C943B000C9458000C9458000C94580029
S11300100C9458000C9458000C9458000C945800FC
S11300200C9458000C9458000C9458000C945800EC
S11300300C9458000C9458000C9458000C945800DC
S11300400C9458000C9458000C9458000C945800CC
S11300500C9458000C9458000C9458000C945800BC
S11300600C9458000C945800C202CB02E702EA0236
S113007006032203690311241FBECFEFD8E0DEBFBD
S1130080CDBF12E0A0E0B1E0E4E3FAE002C00590E5
S11300900D92AC37B107D9F722E0ACE7B2E001C06A
S11300A01D92A53BB207E1F70E9473030C94180557
S11300B00C9400008AB18C608AB98BB1837F8BB9B0
S11300C00895882321F08BB184608BB903C08BB170
S11300D08B7F8BB9662321F08BB188608BB908952F
S11300E08BB1877F8BB908950E945A0060EA76E845
S11300F081E090E00E94720487E20E94040181E0A2
S11301000E94380108950F931F93CF93DF938C01BE
S1130110EB010E94430160E080E00E944701C801B6
S11301200E94540161E080E00E944701CE010E94D8
S11301305401DF91CF911F910F910895CF93DF93D5
S1130140D82F682F80E00E944701C0E004C080E2FD
S11301500E946101CF5FC031D0F36D2F80E00E9417
S11301604701DF91CF910895CF93C82F80917C02EE
S1130170880F0E949504882339F0809100018C2B0C
S11301800E94C0040E94BC04CF910895CF93C82F4D
S113019084600E94B40000008C2F8B7F0E94B40006
S11301A080E18A95F1F700C0CF91089591E0611143
S11301B001C090E0807F892B0E94C6000895CF93F0
S11301C0C82F60E0807F0E94D60060E08C2F82956B
S11301D0807F0E94D600C150C23030F483EF91E09A
S11301E00197F1F700C00000CF910895CF93C82F75
S11301F061E0807F0E94D60061E08C2F8295807F31
S11302000E94D600CF91089580937C028FE097E2FC
S11302100197F1F700C0000060E080E30E94D6007F
S113022081EE94E00197F1F700C0000060E080E304
S11302300E94D60092E39A95F1F760E080E30E9471
S1130240D60082E38A95F1F760E080E20E94D6004E
S113025092E39A95F1F788E20E94DF008CE00E9415
S1130260DF0081E00E94DF0086E00E94DF00089545
S1130270882311F088E001C080E08093000180E0D1
S11302800E94B400089581E00E94DF000895262FA3
S1130290217030E0F901EF5FFE4F90818F70890F7C
S11302A080680E94DF000895CF93DF93EC0103C0C0
S11302B021960E94F60088818111FACFDF91CF91B7
S11302C008950E94F60008951092900210929102EF
S11302D0089510927E0210927F02089580919002F8
S11302E04091A302841313C020E00DC0822F90E03C
S11302F0FC01EF56FD4F3081FC01EC55FD4F808130
S1130300381307C02F5F241788F381E0089580E035
S1130310089580E0089590ED980F9A3088F4E09164
S11303209002E03168F491E09E0F90939002F0E027
S1130330EF56FD4F8083E92FF0E0EF56FD4F10821A
S113034008951092A20261E080E00E9461000E9480
S1130350640163E071E081E191E00E94830008950B
S1130360CF93DF93EC0182E08093A20260E081E00E
S11303700E9461000E9464016FE171E0CE010E945D
S11303808300DF91CF91089586E08093A20261E01B
S113039080E00E9461000E94640160E371E08EE3EA
S11303A091E00E948300089583E08093A2020E945A
S11303B0640168E471E086E591E00E948300089599
S11303C0CF9381E00E949E00C0E005C08AE290E0E5
S11303D00E946101CF5F80919002C81710F4C03170
S11303E0A8F3CF9108956091900280917E026813E2
S11303F017C020E00DC0822F90E0FC01EF56FD4FA6
S11304003081FC01E158FD4F808138130BC02F5F10
S1130410261788F381E992E00E94D40381E00895CD
S113042080E0089580E008950E946E01882339F0E9
S113043010927D0286E691E00E94B00108958091B9
S11304407D028F5F80937D0261E080E00E94610005
S113045067E771E088E891E00E9483002FEF81EF65
S11304609BE2215080409040E1F700C00000809161
S11304707D02853018F00E94C40109C081E0809398
S1130480A20268E472E089E991E00E9483000E947C
S1130490640108950E946E01882361F084E08093D2
S11304A0A2020E94640168EA71E08BEB91E00E9471
S11304B08300089568EC71E08CED91E00E94830064
S11304C02FEF81EF9BE2215080409040E1F700C084
S11304D000000E94A1010895CF93C0919002C11120
S11304E016C06DEE71E08EEF91E00E9483002FEF55
S11304F08FE097E2215080409040E1F700C0000077
S113050068EA71E08BEB91E00E94830017C04C2FE6
S113051050E04F5F5F4F61E972E08FE792E00E9425
S1130520F904C0937E0285E08093A2020E946401D4
S11305306AE072E088E192E00E948300CF9108951E
S11305400E940C040E94A1010895CF930E941904F3
S1130550C82F882309F4C5C0843439F410927D026D
S113056089E292E00E94B001BCC0E091A2028E2F09
S113057090E08730910508F0B4C0FC01EC5CFF4FBB
S11305800C94F30481E08093A20268E472E089E9A8
S113059091E00E94830080ED8C0F8A3030F48C2F20
S11305A00E948B010E94E0019CC0C33429F40E9484
S11305B064010E94E00195C0C13419F40E94140240
S11305C090C0C23409F08DC00E94D4018AC00E9438
S11305D0A10187C080ED8C0F8A3030F48C2F0E94EB
S11305E08B010E94E0017DC0C33429F40E946401A0
S11305F00E94E00176C0C13419F40E944A0271C01D
S1130600C23409F06EC00E94A1016BC080ED8C0F52
S11306108A3030F48C2F0E948B010E94E00161C06B
S1130620C33429F40E9464010E94E0015AC0C13419
S113063019F40E946C0255C0C23409F052C00E94E1
S1130640A1014FC080ED8C0F8A3030F48C2F0E94B2
S11306508B010E94E00145C0C33431F40E9464015F
S113066081E00E949E003DC0C13451F50E94F30117
S1130670882381F068E472E089E392E00E948300B9
S11306802FEF81EF9BE2215080409040E1F700C0C2
S113069000000FC069E472E08AE592E00E948300E2
S11306A02FEF81EF9BE2215080409040E1F700C0A2
S11306B000000E9464010E9469010E94A10111C00E
S11306C0C23479F40E9464010E9469010E94A1016C
S11306D008C0C33431F460E371E08EE391E00E941A
S11306E08300CF9108950E9474000E94B3030E9476
S11306F0A0020E94A502FDCF0E940205089580E099
S113070090E00E947C0391E0853A09F090E0892F03
S113071008951F93CF93DF9381E090E00E947C03C0
S11307208093A3028150803118F084E08093A30267
S113073010E00AC0C12FD0E0CE0102960E947C03D3
S1130740CC55DD4F88831F5FE091A3021E1790F301
S1130750F0E0EC55FD4F1082DF91CF911F91089589
S11307600E940A050895CF930E947F03811118C047
S113077065EA80E090E00E94B00364E081E090E0EC
S11307800E94B003C0E00AC08C2F90E0FC01EA593B
S1130790FD4F608102960E94B003CF5FC430A0F386
S11307A00E948903CF9108950F931F93CF93DF93F2
S11307B02FEF260F203138F5D62F8C0165EA80E023
S11307C090E00E94B0036D2F81E090E00E94B0039E
S11307D0C0E00AC08C2F90E0F801E80FF91F608197
S11307E002960E94B003CF5FCD17A0F3D093A3026B
S11307F0CD2FD0E0AE01B80184EA92E00E94F90462
S1130800CC55DD4F1882DF91CF911F910F91089540
S113081083B182958F70089584B18F6084B985B156
S11308208F6085B984B18F7084B985B1806F85B9C3
S11308300895FF920F931F93CF93DF93F12C43C03E
S113084085B18F6085B925B10F2D10E081E090E06E
S11308500F2C02C0880F991F0A94E2F78095822317
S113086085B900C000C000000E94080490E028C0C0
S1130870C92FD0E0282F30E0092E02C035952795E6
S11308800A94E2F720FD1BC085EA9EE00197F1F788
S113089000C000000E94080490E00C2E02C0959550
S11308A087950A94E2F780FFF5CF000F111F000F20
S11308B0111F05591D4FC00FD11F888109C09F5FAB
S11308C09430B0F2F39483E08F1508F0B9CF80E050
S11308D0DF91CF911F910F91FF9008958091B900FE
S11308E0887F08959B01AC011092B90060E074E226
S11308F084EF90E00E94D104DA01C9014097A10974
S1130900B109B695A795979587958F3F9105A10550
S1130910B10529F020F08FEF90E0A0E0B0E08093E3
S1130920B80084E08093BC000895CF93C82F84EA74
S11309308093BC008091BC008823E4F70E946E047D
S1130940883011F0803189F4C093BB0084E880932F
S1130950BC008091BC008823E4F70E946E048831B7
S113096031F0803431F481E005C080E003C081E0DF
S113097001C080E0CF91089584E98093BC0008957C
S11309808093BB0084E88093BC008091BC008823E2
S1130990E4F70E946E0491E0883209F090E0892F18
S11309A00895A1E21A2EAA1BBB1BFD010DC0AA1FAC
S11309B0BB1FEE1FFF1FA217B307E407F50720F0C4
S11309C0A21BB30BE40BF50B661F771F881F991F3F
S11309D01A9469F760957095809590959B01AC0188
S11309E0BD01CF010895EE0FFF1F0590F491E02D96
S11309F00994FB01DC0102C001900D92415050406A
S1130A00D8F70895F999FECF92BD81BDF89A992738
S1130A1080B50895262FF999FECF1FBA92BD81BDE6
S1130A2020BD0FB6F894FA9AF99A0FBE019608956C
S1070A30F894FFCF64
S1130A34080040496E677265736520636C6176656E
S1130A440043616E6461646F3A20424C4F51005418
S1130A5465636C656520702F206365727261720032
S1130A64557365204420286C6C6176652900424CDA
S1130A744F51554541444F00436C61766520616391
S1130A847475616C3A0043616D62696F206465201A
S1130A94636C6176650043616E6461646F3A2041FE
S1130AA442494552544F00496E74656E746520641E
S1130AB465206E7565766F00436C61766520494EDA
S1130AC4434F52524543544100496E6772657365FE
S1130AD420636C6176653A0028413D6775617264F0
S1130AE461722C20433D626F7229004E75657661F4
S1130AF420636C6176653A004F7065726163696F57
S1130B046E2063616E63656C61646100436C61763D
S1130B14652061637475616C206D616C00496E7449
S1130B24656E7465206F7472612076657A004E7503
S1130B346576612076616369610028413D636F6E67
S1130B446669726D61722900436F6E6669726D61C4
S1130B547220636C6176653A004C6C61766520752D
S1130B64736164612028442900436C6176652063C1
S1130B74616D6269616461210043616D62696F2022
S1130B8463616E63656C61646F004E6F20636F69AB
S1130B946E63696465003132333400313233413475
S10F0BA4353642373839432A30234400E8
S9030000FC
