:100000000C9434000C9449000C9449000C94490061
:100010000C9449000C9449000C9449000C9449003C
:100020000C9449000C9449000C9449000C9449002C
:100030000C9449000C9449000C9449000C9449001C
:100040000C9449000C9449000C9449000C9449000C
:100050000C9449000C9449000C9449000C944900FC
:100060000C9449000C94490011241FBECFEFD8E036
:10007000DEBFCDBF11E0A0E0B1E0E6ECF2E002C0EF
:1000800005900D92A631B107D9F70E9457000C9444
:1000900061010C940000FC019191992339F0809149
:1000A000C00085FFFCCF9093C600F6CF0895CF9394
:1000B000DF93CDB7DEB72A970FB6F894DEBF0FBE39
:1000C000CDBF80E480937C0086E880937A00109214
:1000D000C50087E68093C40088E08093C10086E075
:1000E0008093C20080917C00807F80937C0080910F
:1000F0007A00806480937A0080917A0086FDFCCF3C
:1001000080917800909179009C0122553109283224
:10011000310508F474C0275331092832310508F439
:1001200071C0265331092832310508F46EC02753B7
:1001300031092832310508F46BC0265331092035C6
:10014000310508F468C0275331092832310508F415
:1001500065C0275331092832310508F462C026539F
:1001600031092832310508F45FC02753310928329C
:10017000310508F45CC0265331092832310508F4F2
:1001800059C0275331092832310508F456C0275386
:1001900031092832310508F453C026533109283279
:1001A000310508F450C0275331092832310508F4CD
:1001B0004DC0265331092832310508F44AC085580C
:1001C0009340889710F40FE010E04AE0BE016F5FA3
:1001D0007F4FC8010E942C0180E091E00E944B00FB
:1001E000CE0101960E944B0083E191E00E944B00FA
:1001F0008FE39CE90197F1F700C0000073CF10E096
:1002000000E0E3CF01E010E0E0CF02E010E0DDCF5E
:1002100003E010E0DACF04E010E0D7CF05E010E013
:10022000D4CF06E010E0D1CF07E010E0CECF08E059
:1002300010E0CBCF09E010E0C8CF0AE010E0C5CF56
:100240000BE010E0C2CF0CE010E0BFCF0DE010E0FB
:10025000BCCF0EE010E0B9CFBB274A3031F4992370
:1002600022F4BDE2909581959F4F0C943801BB27F5
:10027000FB015527AA27880F991FAA1FA41710F062
:10028000A41B83955051B9F7A05DAA3308F0A95D6E
:10029000A193009779F7B111B1931192CB010C940E
:1002A0005101DC01FC01672F71917723E1F732974F
:1002B00004C07C916D9370836291AE17BF07C8F341
:0602C0000895F894FFCF41
:1002C600426F746F6E2070726573696F6E61646FD2
:0602D6003A20000D0A00B1
:00000001FF
